:020000022000DC
:10600000702600203D8D020075F80200118D0200FF
:10601000118D0200118D0200118D020000000000A0
:10602000000000000000000000000000618E02007F
:10603000118D020000000000CD8D0200118D0200C4
:106040008190020081900200819002008190020004
:1060500081900200819002008190020081900200F4
:1060600081900200819002008190020081900200E4
:1060700081900200819002008190020081900200D4
:1060800081900200819002008190020081900200C4
:1060900081900200819002008190020081900200B4
:1060A00081900200819002008190020081900200A4
:1060B0008190020081900200819002008190020094
:1060C0008190020081900200819002008190020084
:1060D0008190020081900200819002008190020074
:1060E0008190020081900200819002008190020064
:1060F0008190020081900200819002008190020054
:1061000053B94AB9002908BF00281CBF4FF0FF311E
:106110004FF0FF3000F00CB8ADF1080C6DE904CE83
:1061200000F008F8DDF804E0DDE9022304B0704770
:10613000704700BF2DE9F04786468C460846089E0A
:10614000154674461946002B40F0C2808542B2FACB
:1061500082F245D94AB1C2F1200300FA02FC2EFABC
:1061600003F3954043EA0C0C94404FEA154EA8B255
:10617000BCFBFEF8230C0EFB18CC08FB00F943EA2D
:106180000C43994528D9EB1808F1FF3704D29945FB
:1061900002D9A8F102072B44A3EB0903A4B2B3FB75
:1061A000FEFC0EFB1C330CFB00F044EA0344A0424F
:1061B00014D92C190CF1FF3304D2A04202D9ACF14E
:1061C00002032C44241A43EA07401EB1D4400023A2
:1061D00034607360BDE8F0874746DDE76346F1E76A
:1061E00092BB431B01214FEA154EAFB2B3FBFEFC3D
:1061F000200C0EFB1C330CFB07F840EA03439845C8
:1062000062D9EB180CF1FF3004D2984502D9ACF1F9
:1062100002002B44A3EB0803A4B2B3FBFEFC0EFB6D
:106220001C330CFB07F744EA0344A7424ED92C1950
:106230000CF1FF3304D2A74202D9ACF102032C4483
:10624000E41B43EA0040C0E7C2F1200320FA03F157
:10625000954090402EFA03F303434FEA154EAFB238
:10626000B1FBFEFC0EFB1C10190C0CFB07F841EAFD
:106270000041884504FA02F422D969180CF1FF3074
:1062800004D2884502D9ACF102002944A1EB0801EF
:106290009BB2B1FBFEFC0EFB1C110CFB07F743EAA3
:1062A00001439F420ED9EB180CF1FF3104D29F42FB
:1062B00002D9ACF102012B44DB1B41EA004192E719
:1062C0006046E3E76146F7E76046A3E76346B7E762
:1062D000834206D916B9002108467BE7C6E900E0EB
:1062E000F9E7B3FA83F78FB9834201D3724508D82F
:1062F000BEEB020460EB030301209C461EB90021A3
:1063000068E73846FAE7C6E9004CF8E7C7F1200C21
:10631000BB4022FA0CF41C432EFA0CF120FA0CF3C9
:10632000B84001434FEA14490EFA07F5B3FBF9F8F8
:106330001FFA84FE09FB18300B0C08FB0EFA43EA27
:1063400000439A4502FA07F240D9E31808F1FF30FA
:1063500004D29A4502D9A8F102002344A3EB0A0310
:1063600089B2B3FBF9F809FB183308FB0EFE41EACA
:1063700003418E452CD9611808F1FF3304D28E45B4
:1063800002D9A8F10203214443EA0040A0FB02988D
:10639000A1EB0E014145CE46434602D306D14D4501
:1063A00004D2B9EB020E68EB04030138002EA6D02C
:1063B000B5EB0E0261EB030101FA0CFC22FA07F3C4
:1063C0004CEA0303F940C6E9003198E74046C5E7C7
:1063D0004346D9E710F8012B11F8013B012A28BFE9
:1063E0009A42F7D0D01A7047034613F8012B002ABF
:1063F000FBD1181A013870472DE9F0472DED028BBB
:106400009FED498B4A4E84B004464FF02003EFF3D2
:10641000118783F31288BFF36F8FD4F8C0508DB902
:10642000022104F1D80009F0D9FE002843D100234D
:106430008DED008B029304F1C80239463D4807F008
:1064400003FBE2E7D4F8C4202B68C4F8C0309542BF
:1064500008BFC4F8C430D4F8D83043F00203C4F8FD
:10646000D830EB6823F0040343F00103EB606B6862
:1064700087F31188BFF36F8F284698474FF02003AA
:10648000EFF3118983F31288BFF36F8FEB689907DD
:1064900023F0010219D4EA60D4F8D83023F00203C3
:1064A000C4F8D83089F31188BFF36F8FDB05ACD403
:1064B00007F0AAF9A9E704F1D00500220121284636
:1064C0000AF029F80028F8D1B1E7306823F0030377
:1064D000EB600028E0D00027D0F80080BA46002802
:1064E000DAD04268954201460BD1016897B97268CB
:1064F0003160824200D1716040F808AB06F0E2FDE5
:106500003946B8F1000F0BD0D8F8002040460F46AE
:106510009046E4E739607268824208BF7760EBE733
:106520004246F3E7AFF30080FFFFFFFFFFFFFFFFEF
:10653000F01400202D150020014806F083BE00BF96
:106540000000002007B50AF023F84FF47A72A0FB90
:10655000020302FB0131C00B074A40EA41401060D0
:1065600000234FF400420548CDE9002307F04AFC20
:10657000002003B05DF804FBA0060020000100200D
:10658000014B187800F026BA08150020044B1A7841
:10659000824202D01870FFF7F3BF0020704700BF9F
:1065A0000815002008B509F0F3FF4FF47A72A0FB3C
:1065B000020302FB0131084AC30B126843EA41435C
:1065C0009B1A47F23052934204DDBDE80840012097
:1065D000FFF7DCBF08BD00BFA006002008B509F02A
:1065E000D7FF4FF47A72A0FB020302FB0131C00B0C
:1065F000044A40EA41401060BDE808400020FFF72F
:10660000C5BF00BFA0060020F8B5044610B900259C
:106610002846F8BD0378002BF9D00F4E0F4FBE422D
:106620000FD30D4EBE42F2D2306809F0D5FC30B126
:10663000356821462868FFF7CDFE0028E8D00436EB
:10664000F0E7306809F0C8FC18B135682B68A34240
:10665000DED00436E3E700BF5414030068140300DF
:1066600070B5194C194D8CB00022002303A92046A7
:1066700006F0E4FB08B10CB070BD2B68059E5868AD
:10668000DDE9031207F049FF0028EDDBFF238DF859
:106690001830B6FA86F35B0907908DF8203009F0C0
:1066A00077FF4FF47A72A0FB020302FB0131C00BAB
:1066B00040EA4140C90B8DE8030006ABCDE90A0171
:1066C0000FCB00F097F9CFE77C010020B406002043
:1066D0001FB50A4C2468A46884420DD183F00103DD
:1066E000CDE90112039306480022002301A906F018
:1066F00055FB044806F0A6FD04B010BDB40600200A
:106700007C010020A40600201FB50023CDE9023340
:10671000044B8DF80C0001A8019307F025FF05B08C
:106720005DF804FB9C0B030038B5044628B3144DF8
:106730002B6883421FD02BB1986818B183685B68BF
:1067400003B198470F49104B00228C4214BFED2132
:106750001146104607F0FBFE00280DDBA0682C60F8
:1067600048B1836809491B6898472B689868836813
:106770009B6803B19847002038BD6FF01200FBE71B
:10678000B4060020880B0300A4060020D166020096
:1067900038B5054648B90648FFF7C6FF041E02DBB8
:1067A0002846FFF7B1FF204638BD6FF01504FAE721
:1067B000880B0300F7B50C4615460D4901AA1E4685
:1067C00008F03CFF68B1019B6BB9012C0DD1094F5A
:1067D000224639463046A847002802DD3878FFF7C0
:1067E000D7FF03B0F0BD0020FBE76FF01500F8E71E
:1067F0002C0E0300D00000200148FFF795BF00BF1A
:10680000880B030008B50449044809F05AFDBDE8A7
:106810000840FFF7F1BF00BF61660200A406002038
:10682000F8B50F4D0F4E761B07460C4605EBC1051C
:10683000C6F3C706A64201DC00200CE02A683B68CC
:106840009A4209D13C716B6838461B68984718B169
:10685000431E012BF0D9F8BD01340835EAE700BF2B
:10686000B0110300D811030000B58BB0064B074AE6
:106870002821684607F03AFB05490122684601F0E5
:1068800025FF0BB05DF804FB740E03007E0E0300C1
:10689000091500202DE9F8434768044600254FF00C
:1068A00001087B68AB420DD82149224809F037FD29
:1068B000A3681B680BB120469847398939BB002073
:1068C000BDE8F8833A6802EBC50352F83500197940
:1068D000DB88D0F810C0D0F80890DCF80060DA0748
:1068E00054BF43F4B01383F4D01323F4801208FA96
:1068F00001FEDB074CBF46EA0E0626EA0E06CCF880
:106900000060D9F80030984770B90135C9E740F206
:10691000E7304FF47A72002300EBC1300021FFF71B
:10692000EFFB06F0F3FFCAE76FF00400C8E700BF13
:10693000696802008002002008B5074B5A784AB9FE
:1069400001221A7005480022002306F0E3FC0448E7
:1069500007F020FE002008BD09150020800200205D
:106960008009030008B54FF4F0120023024806F036
:1069700005FD00EAE07008BD80020020F7B50C4676
:106980001646114901AA1F4608F058FEB0B1019BF6
:10699000A3B9012C15D10D4D224629463846B047E2
:1069A000002806DB2B780A486C7023B107F0F2FD53
:1069B000002003B0F0BD07F009FEF9E76FF0010019
:1069C000F7E76FF01500F4E7740E030009150020D7
:1069D000800903001FB50023CDE90233044B8DF875
:1069E0000C0001A8019307F0BFFD05B05DF804FBA2
:1069F000C00B030084B030B589B00CAC84E80F0044
:106A0000002301930CAD084B00930FCD02AC0FC4D3
:106A100095E8030084E80300684607F0A5FD09B087
:106A2000BDE8304004B07047C40B03000268034B5C
:106A30009A420CBF08300020704700BFC40B03000F
:106A40001FB50023CDE90233044B8DF80C0001A8DB
:106A5000019307F089FD05B05DF804FBCC0B030042
:106A600082B038B504A981E80C000546114805F04C
:106A700063FF0446A0B16B68012B0CD0022B05D03C
:106A8000A3B9BDE8384002B007F0CFBD07F0D4FD90
:106A900000282046F5DCBDE8384002B007F0BEBD56
:106AA0006FF00400BDE8384002B070476FF0850019
:106AB000F8E700BF740E030082B010B502A981E8A8
:106AC0000C0004460B4805F037FF78B16368022BD1
:106AD00004D00020BDE8104002B0704707F0ACFDC4
:106AE0000028CCBF002001206060F2E76FF00400B6
:106AF000F0E700BF740E03000D4A52F82030013356
:106B000042F820300B4A0123117883400B430A4995
:106B10000978DBB2137023EA01030849084A0978AF
:106B200050780B43181A537018BF0120704700BFEC
:106B3000B80600200D1500200B1500200C150020B4
:106B4000DE00002010B5114A52F82030002B19DD6C
:106B5000013B42F820300E4A2BB9137801218140C5
:106B600023EA010313700B480B4B047810780B4A8F
:106B70005978127820EA040010435870401A18BF60
:106B8000012010BD6FF01500FBE700BFB806002024
:106B90000D1500200B150020DE0000200C15002034
:106BA000044A012312788340D8B213401B1A58427A
:106BB000584170470D15002010B5084B084A187051
:106BC000084B51781C78084B1B7823EA04031843C0
:106BD0005070401A18BF012010BD00BF0C150020D6
:106BE000DE0000200B1500200D150020074B0022B1
:106BF0001A70074B074A1978074B50781B7823EA1D
:106C00000103181A537018BF012070470C1500209B
:106C10000B150020DE0000200D150020A0F1E00380
:106C2000072B03D82030C0B2FFF766BF064B062201
:106C300013F8011F19B1013AFAD1002070471870FA
:106C40000028F8D0F9E700BFE0000020A0F1E00341
:106C5000072B10B405D820305DF8044BC0B2FFF705
:106C600071BF0023064A194612F8014F0133A042B2
:106C700008BF1170062BF7D100205DF8044B704758
:106C8000E0000020A0F1E003072B03D82030C0B2C1
:106C9000FFF786BF064A002312F8011F884204D07E
:106CA0000133062BF8D1002070470120704700BF48
:106CB000E0000020024B00221A605A60704700BFBB
:106CC000DF000020B0F5805F10B510D20949002325
:106CD00001EB4302B2F8014024B10133062BF7D196
:106CE000002010BDA2F801000028F6D0F8E76FF0F0
:106CF0008500F6E7D100002030B50023074C194687
:106D000004EB43020133B2F80150854204BF5170D5
:106D10009170062BF4D1002030BD00BFD1000020BF
:106D2000024B00221A605A609A607047D20000201D
:106D3000074A002302EB4301B1F80110814204D05D
:106D40000133062BF6D1002070470120704700BFA9
:106D5000D100002000487047DE0000200048704746
:106D6000D100002030B585B06D46002409490A489D
:106D700009F0D5FA00946C6000F094F995E80300EE
:106D8000064A02AB83E8030082E80300204605B010
:106D900030BD00BFA16D0200B0020020D806002067
:106DA00002490348012201F091BC00BF0E150020EA
:106DB000380F030082B00DF1080C0CE903001946EE
:106DC0009DF8003010461BB1012B05D0054A00E0AC
:106DD000054A02B007F08AB8019B044A02B007F0E6
:106DE00085B800BF570F03004C0F0300500F03007E
:106DF000072804D00C2808D06FF085007047064B98
:106E00001B78002BF8D107F099BD034B1B78002BA2
:106E1000F2D107F09BBD00BFD806002010B5084C8A
:106E2000FFF748FFFFF77CFF23780BB907F086FDDB
:106E300023781BB9BDE8104007F088BD10BD00BF26
:106E4000D806002070B588B0002305AECDE9053323
:106E50000F4C00F027F996E8030001AD94E80C0010
:106E600085E8030007F094FC80B9FFF7D7FF95E8A9
:106E700003000A23324684E80300FFF79BFF94E8EF
:106E8000030003AB83E8030000F022F808B070BDF4
:106E9000D806002070B50C4615460B4900221E4648
:106EA00008F0CCFB08B9002070BD012C08D10749BF
:106EB00022463046A8470028F6DDFFF7C3FFF2E779
:106EC0006FF01500F0E700BF420F03000E15002021
:106ED0007FB56B4683E8030093E80300002206AB0E
:106EE00003E90300039202A8034A029207F03CFB65
:106EF00007B05DF804FB00BF3C0C03001FB528BBC6
:106F000019B9002005B05DF804FB12490B6843F085
:106F100001029A420A60F4D04FF48073ADF8003059
:106F200009F036FB4FF47A72A0FB020302FB013139
:106F3000C00B40EA4140C90BCDE9020104AB13E9A3
:106F40000F0005B05DF804EB00F02AB86FF01500F3
:106F5000D8E700BFE006002073B50F4B06460C468D
:106F600015461AB10D4A126843F8212053F824102F
:106F7000002007F079FC58B1DDE906230021CDE9B6
:106F8000002330462B46224607F07EFC002801DD18
:106F90006FF0850002B070BDE0060020E006002022
:106FA00010B58AB06C4684E80F0000230593064BA9
:106FB000049394E80F000AAC04E90F0004A807F05A
:106FC000D3FA0AB010BD00BF480C030084B030B53E
:106FD00089B00CAC84E80F00002301930CAD084B82
:106FE00000930FCD02AC0FC495E8030084E80300C2
:106FF000684607F0B9FA09B0BDE8304004B0704700
:10700000500C03000268034B9A420CBF083000206A
:10701000704700BF500C030008B5044801F0A0F809
:10702000002818BF6FF0150008BD00BF6570020092
:10703000014B1878704700BFE7000020084B1B7811
:107040000B2B4FF001000AD8984010F4CD6F05D1FA
:1070500010F4016F0CBF0120002070470220704720
:10706000E70000200A2808B5024613D00A4B0B4956
:107070001870FFF7E3FF02280AD10B78032A08BF34
:1070800043F001030B70BDE80840054806F0DAB88C
:107090000023F7E708BD00BFE70000200F15002020
:1070A0001000002008B5FFF7C9FF022806BF034BF8
:1070B0001878002000F0010008BD00BF0F15002067
:1070C00010B50948094C05F037FC206048B1084B61
:1070D00008494D2202F0B2F9206808F018FC00209F
:1070E00010BD6FF01500FBE7CC0F0300E406002095
:1070F000540C0300D20F030038B504460D46FFF7C9
:1071000097FF0B280BD8DFE800F01E1E0A0A1E06A8
:107110000A0A0A0A0A1EBDE8384000F0EBBF4FF425
:1071200076720023094805F0F1FF094821460068FE
:1071300000232A4608F0F5FB044610B1034805F089
:10714000C1FF204638BD6FF01204FAE7A401002009
:10715000E4060020014805F0B5BF00BFA4010020EF
:1071600010B5094C0A44914200D110BD11F8013B01
:10717000584003090001E35CC0B2434018091B01F9
:10718000205CDBB25840EEE71F100300014B1B6888
:10719000184700BF2000002030B585B004460D46DA
:1071A00010220021684609F0B8FA02238DF8023057
:1071B0002A46044B01932146684606F0C3FE05B0FB
:1071C00030BD00BF8D71020080B505460E461746E2
:1071D000984606F0CFFB034609F0F8FADFF818905E
:1071E000044649F80030424630463946A84754F82C
:1071F000090001F0BBFD00BF080000002DE9F047C9
:10720000058B04462807904611D4022905F007058E
:1072100040F0CD80204607F0B0FD78B10138218BD9
:10722000042811D8DFE800F0C3106D85950001290E
:107230000CBF45F0100545F02005258388F3118823
:10724000BFF36F8FBDE8F08701F0070AAA4500F091
:10725000A6800027B9463E46A368002B00F0BD80FB
:1072600041F00801218388F31188BFF36F8FA16873
:10727000002900F0BB800D68002900F0B780D1F82C
:107280000480334652462046C047002D76D02B68F6
:1072900029461D46F0E701F007035A1F012A1BD8B3
:1072A000002221F00701062B276889B2C4E90022D9
:1072B00009D13B4603E0628B013262831B68002BDD
:1072C000F9D141F002012183204607F056FD002844
:1072D0007BD041F0200177E0042B0AD121F0070197
:1072E00089B22183204607F048FD10B141F020010A
:1072F0002183218B01F0070AAA4550D00027B94607
:10730000AAE7236921F0070141F00601062DD3F811
:10731000009021832DD1B9F1000F40D041F0080138
:10732000218388F31188BFF36F8F3A492046C847FD
:1073300029E021F00701236941F0040189B2042DFD
:10734000D3F804902183E6D000273E464FF0040A8C
:1073500082E721F00701236941F0050189B2052D7B
:10736000D3F808902183D6D000273E464FF0050A77
:1073700072E700273E464FF0060A6DE72B4687E787
:10738000B9F1000FD1D14FF02003EFF3118883F34F
:107390001288BFF36F8F238B23F008032383258B81
:1073A000EA062ED525F01003238305F0070566694C
:1073B000218B002EBFF66FAF00232768C4E900338E
:1073C00021F0070141F001012183218B01F0070A1F
:1073D000AA454FF000097FF43FAF002F9BD041F04A
:1073E0000801218388F31188BFF36F8F002FC7D066
:1073F0003D68394633465246204607F0EAFC2F46A0
:10740000F4E7AB067FF51AAF25F02003238305F0E0
:107410000705FFE6FFED020008B504464FF0200225
:10742000EFF3118382F31288BFF36F8F03F086FBB3
:10743000204601F03DFF034807F0ACFA01F006FEDC
:10744000FCE700BF2F10030003F0A2BB2DE9F743B8
:107450000F4606460821C06ADFF8509007F036FE56
:107460003C68241A80463C6004EA0905AC4203D813
:10747000002003B0BDE8F08308236A462146304669
:1074800007F097FD0028F4D16946304607F028FE42
:1074900040B1BDF80230BDF804203C6005EA0905A2
:1074A00013441D44A4EB0804E0E700BF0000FFFF05
:1074B0002DE9F047044688B000F11407384608F07B
:1074C00001FEA06A8368DB689847E06228B96FF024
:1074D0001505284608B0BDE8F087A06A8368DB6818
:1074E00098470368013B1F2BF1D8A06A216805AAC1
:1074F00008F06EFB0028EAD1A589002DE7D0069B95
:10750000B5FBF3F203FB1255002DE0D1E389012B0B
:10751000DDD9E36A009593F804904FF0FF334FF004
:10752000FF32384605F0E4FCE06A082107F0CEFDA2
:10753000A8460646E3891FFA85FA534508D8E38929
:10754000434523D1384605F04DFD6FF02C05C0E7CB
:10755000A1892B04891B13FA81F14A46082320468E
:10756000009107F074FD78B16946204607F02FFDC1
:1075700008F10108009908234A4620461FFA88F8B6
:1075800007F065FD0028DAD00135D3E753450BD16C
:10759000009908234A46891B204607F058FD18B970
:1075A0006946204607F013FD69462046FFF74EFF67
:1075B000054618B1384605F015FD8AE7009B636063
:1075C0004FEA13484FEA0848C4F80880D4E9011389
:1075D00099420FD3082301AA204607F0EAFC05468A
:1075E0000028E7D101AB13F8012B914533D10135C8
:1075F000082DF8D163681B0C1B04694620460093D4
:1076000007F0E5FCA38900994A46204607F01FFDD4
:10761000051ECFDB636876D006EB03084FF6FF79D3
:10762000A389CDF800801FFA88F29B1B9A422ED3C3
:1076300000236168002B43D0090C09040091204607
:10764000694607F0C4FC0099204607F025FD054671
:10765000002D74D0AEE701A9204607F041FD626815
:1076600010B9921B6260B1E7BDF80850BDF8061072
:10767000E06AC4F80880294407F028FD404490429D
:10768000A060EED1002DECD06FF01C0568E008235F
:1076900003AA4146204607F08CFC0546002889D104
:1076A00003A9204607F01CFD30B1BDF80C304B4556
:1076B00002D1BDF810300BB1B044B1E70123B8E7F7
:1076C000204607F0E9FC054600287FF473AF6368A5
:1076D000264AA18913400B44A3EB46036360134081
:1076E000A360204607F0E0FDB1E75B1A4A4620465A
:1076F00007F0ADFC051EFFF65DAF08D0E26AA36897
:1077000012681344A360D4E901318B42EDD861685B
:10771000A38901EB46029A429AD1DFF85080A26811
:1077200001EA08039A4293D0204607F0B5FC0546CB
:1077300000287FF43FAF636803EA0803A360A389CE
:10774000A288A3EB46039A4206D0384605F04AFCCD
:10775000012323740025BCE6204607F08EFD054674
:10776000384605F03FFC002DF2D0B2E60000FFFFE6
:107770002DE9F04F1D46037C89B0044689469046AA
:10778000002B00F0BE80C26A0821104607F09EFC64
:1077900029468246104607F099FCA389A3EB8A0389
:1077A0009D42074600F2B0801DB1B8F1000F00F015
:1077B000AB806368039304AA03A92046DDF80CB0EC
:1077C00007F0C6FC0646002864D1BDF810304B45D2
:1077D00005D06268039B9A42EDD1E5B95AE004A94D
:1077E000204607F07DFC0028F3D0BDF81200BDF85C
:1077F000143075B19D420ED14FEA1B41090401447A
:107800002B464246204607F0EFFB002803DC0646E5
:1078100040E0002B3ED0002F40D104F1140301932F
:107820004FF0FF320198DFF8E8B04FF0FF3305F07A
:107830005FFBE3899E4261D0D4E90123F9188A42B3
:107840002FD3ADF81A3006A8FF238DF81E30ADF8FF
:107850001890ADF81C5007F0F1FBA1682B4642468A
:10786000204607F0BFFC29468246E06A07F02EFC5E
:10787000A2680244A260BAF1000F07D106A920460F
:1078800007F0EAFC002814BF8246AA46019805F0DA
:10789000A9FB5646304609B0BDE8F08F5744BFB249
:1078A000BBE7E06A082107F011FC4FF6FF73ADF863
:1078B000183000218DF81E30A389ADF81C10111866
:1078C00002EA0B021A44101A606006A8ADF81A10FA
:1078D00007F0B4FB06A9204607F0BEFC211D204698
:1078E00007F075FB636803EA0B03A360204607F00B
:1078F000DBFC82460028C9D101369AE76FF01B0AEB
:10790000C4E76FF00C06C5E76FF01506C2E700BFCD
:107910000000FFFF014B036000207047680C03006C
:1079200070B5114B1C680D46DCB1104B1968002373
:107930008B4202DB6FF0010070BD224612F8106B23
:10794000864202D001331446F2E7E06810B96FF0C6
:107950001200F1E708F040FB0028F8D02C6000206E
:10796000EAE76FF00C00E7E724000020680C030052
:1079700070B588B005460C46C0B269461646FFF79A
:10798000CFFF00281BDB0098C8B1436802938368CF
:1079900022680195CDE903360023CDE9062305933E
:1079A000C56807F0B9FD6DB12846084901AA08F07D
:1079B00013F9079808B9059B236008B070BD6FF0F4
:1079C0001500FAE76FF01200F7E700BF47F5020075
:1079D000F0B40C4B0C4E5F6A0C4BB34203D36FF008
:1079E0008500F0BC70475D68BD4209D31C693CB19D
:1079F00095F802C00579AC4502D12346F0BC184782
:107A00002433EAE7E80600207C0200205802002028
:107A10002DE9F047134CDFF85080DFF85090054611
:107A20000E461746444503D36FF08500BDE8F08746
:107A30006268D9F824309A4212D3A36983B190784E
:107A40002979884205D13A4631462846BDE8F047B3
:107A500018475279012A03D13A46314628469847B9
:107A60002434DFE7580200207C020020E8060020D2
:107A70002DE9F0410B4CDFF8308005460E461746E5
:107A8000444502D36FF0850009E063690BB92434E3
:107A9000F6E73A463146284698470028F7D1BDE830
:107AA000F08100BF580200207C02002010B504467F
:107AB00007F073FF10F1780F00D050B9054A204647
:107AC00007F063FDD2F8C43023EA0003C2F8C430E3
:107AD000002010BDE8060020024B00221A605A6008
:107AE000704700BFA307002070B50B4B0B4CA3429F
:107AF00001D3002070BD196A1E7F00220439D5B25F
:107B0000AE4201D82433F2E7013211F832508542F7
:107B1000F5D10120EEE700BF580200207C020020D2
:107B200008B509480378C3F341130A3350F82330EA
:107B30003BB100F1080200F110019847C043C00FAB
:107B400008BD1846FCE700BFE806002004282DE920
:107B5000F14FDFF8A09004460F4616D001282DD132
:107B6000DFF88C8098F8B93043B300F071FD1F4DF9
:107B70004D4520D2D5F820B04FF0000A2B7F5FFA98
:107B80008AF6B34204D82435F2E7FFF7A5FFE7E70A
:107B90000BEBC6060AF1010A307907F0FEFE024639
:107BA000307907F0F2FCD8F8C430002A23EA000349
:107BB000C8F8C430E2DA002388F8B9300B4D4D45DF
:107BC00008D30B4B1B6A6BB13946204601B0BDE8A8
:107BD000F04F1847EB681BB13A46214628469847B4
:107BE0002435ECE701B0BDE8F08F00BF580200205B
:107BF000E80600207C02002073B5C4B263060D467F
:107C00008DF8074007D02046FFF76EFF78B10D4B87
:107C100093F8BA0058B10B4E204655B101F0FAFF67
:107C2000F3691BB10DF1070108209847012002B04C
:107C300070BD02F017F8F369002BF7D00DF10701C2
:107C40000920F2E7E806002073B586788DF8006019
:107C5000037942791C4C43EA0223ADF80230C37821
:107C6000304603F003038DF8043007F08EFCD4F89F
:107C7000C430184205460BD0304600F0CBFC3046ED
:107C8000FFF714FF08F0FFF910B9962005F058FE31
:107C9000684601F09BFF10F1780F03D010B100206F
:107CA00002B070BD9DF8000002F018F810F1780FD6
:107CB00001D00028F3D1D4F8C43001202B4384F83C
:107CC000B900C4F8C430EBE7E80600202DE9F0471E
:107CD000A34EB36904460F461546FBB9237803F05B
:107CE0001F03012B00F09D80022B00F0048133BBA9
:107CF00094F900002A686178002834DA062912D045
:107D000008292BD0D9B901231370517096F8C330CC
:107D10005B0043F00103137002232AE19847002817
:107D2000DCD100200DE06288100A011F0129844681
:107D300005D9072803D8716AD2B20C781CB96FF044
:107D40001500BDE8F0874E78664503D19A4200F0F1
:107D50000B8101332144F0E70B780AE196F8BA3041
:107D60001370012305E101390829E8D801A353F86C
:107D700021F000BF0D7E02003F7D02001B7E02004D
:107D80003F7D0200997D02003F7D02003F7D0200A1
:107D90003F7D0200A57D0200A07801F005FF0028CC
:107DA000BFD0CCE76388756A63BBFFF795FE638835
:107DB00086F8BA30F369002BB3D06A49032098479C
:107DC000AFE76B78042B10D0052B11D0022B04D118
:107DD0006F796388BB4208BF01202B781D442B7844
:107DE000002BEED10028AAD0DFE795F80380F4E756
:107DF0006388BB42F1D1B8F1000FEED12846FFF7FE
:107E000023FFEAE7FF270020B846E8E76388012B55
:107E100095D1002386F8C33083E76388012B8ED188
:107E2000F8E796F8BA30D5F800C0002B87D0756A0D
:107E3000A38894F804E02A46107800283FF47FAF26
:107E40005178022904D192F80480F04500F2938021
:107E50000244F1E78CF800208CF80120396060E7DB
:107E6000154494E00B2A7FF46AAF00274FF0FF0817
:107E7000C146BA4606E06B78042B0FD0052B21D003
:107E80002B781D442B78002BF5D1F36913B15146A3
:107E900007209847002F7FF444AF50E795F8028001
:107EA000A38895F803909845EAD163889945E7D16E
:107EB000B8F1070F1CD806EB0803AA4683F8BB905D
:107EC0000127DDE7A3884345DAD1A3784B450AD0E3
:107ED000AF78384600F09EFB3846FFF7E7FDB0FA72
:107EE00080F77F09CCE72846FFF7AEFE0746C7E7D5
:107EF000AA460027C4E794F900206378002A18DA1C
:107F0000002B7FF41CAF24792D6863060AD020462D
:107F1000FFF7EAFD00283FF412AF96F8BA30002BC5
:107F20003FF40DAF2946204601F0BCFE00236B70E4
:107F3000F2E6012B08D0032B7FF401AF6388002BFE
:107F40007FF4FDAE012103E0618800297FF4F7AEE4
:107F5000A088FFF751FE00287FF4E3AEEFE600BFF4
:107F6000E8060020A2070020022829607FF4F4AE72
:107F70004B883B60D5E694F9000062780028BFF694
:107F800071AF002A3FF466AF0A2A7FF4D8AE2A7890
:107F9000002A3FF4D4AE697804297FF461AFA97850
:107FA0008B427FF45DAF072B96BF9B19002393F89C
:107FB000BB308CF80030D4E613B5164C237DF3B9F2
:107FC000E268A168019201AB802007F0ECFA019A07
:107FD000A3681344A360E3689B1AE3606BB962B1C2
:107FE0002369E2889A4208DD94F8C82093FBF2F1F5
:107FF00002FB11330BB90123237502B010BD00231E
:108000001A4619468020237502B0BDE8104001F0E1
:108010008FBE00BFE806002030B585B000230246C1
:108020000D460193002858D1002935D108220B466E
:108030000DEB020107F0CAFC002804DA802001F0F1
:10804000E9FD05B030BD2A4C029A2260039A6260B5
:1080500004F13802A2609DF90820BDF80E302575A4
:10806000002AC4E903550ADB802B04D9802001F0E3
:10807000D1FD0020E3E713B1C4E90333E1E7FFF7E3
:108080004FFD0028DAD0E28823699A42D4BFE2602B
:10809000E360FFF791FFD4E7154CD4E90215002DFA
:1080A00001AB04DC07F092FC0028CADAC6E72A46D6
:1080B00007F08CFC0028D9DB019AA3681344A36065
:1080C000E3689B1AE360002BBBD104F13803A36083
:1080D000FFF726FD0028DCD1B0E78028B1D1044BA2
:1080E000DA68002AD5D11B7D002BD2D1A9E700BFC9
:1080F000E8060020044B93F8C3300BB107F075BCC1
:108100006FF00C00704700BFE8060020054B064AE0
:108110009A62064ADA62064A1A63064A58629A6105
:1081200000207047E8060020CD7C0200D1790200D3
:10813000717A0200117A020010B5084B93F8B8402A
:1081400034B900F0E3F830B1FFF7E0FF204610BD8E
:108150006FF07700FBE74FF0FF30F8E7E80600200C
:108160002DE9F341414D04466F6A41484FF0FF321B
:108170004FF0FF3304F0BCFE95F8B860002E6ED1CE
:108180003C482C62E86101F0EDFE01F0DBFC041ECE
:1081900049DB00F081FA041E45DB7B78012B61D1BD
:1081A000FB79002B5ED0684685F8C830ADF8023008
:1081B0008DF804608DF8006001F008FD041E32DBCC
:1081C000802768468DF8007001F000FD041E2ADB50
:1081D0002949304601F0B2FE041E24DB2649384608
:1081E00001F0ACFE041E1EDB244CDFF894804445F5
:1081F00020D3002001F072FD041E14DBD5F8C4303A
:10820000802043F00103C5F8C43001F067FD041E6F
:1082100009DBD5F8C43043F48033C5F8C4300123FA
:1082200085F8B8300024124804F0DCFE204602B085
:10823000BDE8F081276A0026227FF3B29A4201D876
:108240002434D4E707EBC30257F83310107901F058
:1082500075FE01360028EFD04FF0FF34E3E76FF0F2
:108260007704E0E76FF01504DDE700BFE8060020C3
:10827000680100204D7B0200198002005802002096
:108280007C02002030B51F4B8BB005AA03F110050E
:1082900018685968144603C40833AB422246F7D124
:1082A0001B7823701022002101A808F036FA122250
:1082B0000021154808F031FA102101A807F00DFD42
:1082C00000281BDD0828B8BF0820093801AB0E497B
:1082D0001A18002012F8013F0AAC04EB131403F043
:1082E0000F0328336B44013014F8144C13F8143C7A
:1082F0000C7008284B7001F10201EBD102480BB061
:1083000030BD00BF58100300101500202DE9F04FBC
:10831000704C87B04FF0000B00264FF0011AB046AA
:108320003546B14623782BB96B4B02349C42F3D1CE
:10833000684833E06378052B1BD8DFE803F090032F
:10834000C8901D3B402304A88DF810B0ADF8123042
:108350008DF814B007F00CFB40B1082304A8ADF869
:10836000123007F005FB08B1ADF812B0BDF81230BD
:10837000E37123781C44D5E7E378002BF9D1A37887
:108380007BB108F101085FFA88F8F2E76B689C425C
:1083900009D02435514B9D42F8D3002007B0BDE8E9
:1083A000F08F4F4DF6E7AB68002BEAD041462046F0
:1083B0009847E6E7002DF0D000222B7F9A42ECD2BE
:1083C000296AA07801EBC2010B79984201D00132F1
:1083D000F3E70127E07800F003008DF8140020791E
:1083E00094F805C040EA0C20ADF8120094F90200A0
:1083F0000028FBB228DA07F110004FF0010C0CFA4C
:1084000000F010EA0A0F26D143F080008DF810002A
:1084100004A8CDE90213019207F0AAFADDE90121CF
:10842000039BC0B99DF81020A27012F0800F18BFF6
:1084300010330A7118BFDBB24FF0010214BF9A402B
:10844000BA404AEA020A94E70120B84010EA0A0F4B
:1084500001D11846DAE70137102FBBD1B7E7032E59
:108460001DD1FFF70FFF074668B1FDF7BDFF1028CC
:1084700009D13846A31C07F1100250F8041B43F839
:10848000041B9042F9D123786FF00201E218091B16
:1084900004EB5303D14213D50136F6B269E7002E3F
:1084A000F1D1B9F1000F3FF478AFA4EB090389F8DB
:1084B0000230C3F3072389F8033089F80480EBE71F
:1084C00002F801BC13F8010902F8020DE2E7A14627
:1084D0004FE700BFC4010020560200207C020020AC
:1084E0005802002010B5094B00211A461C7884421E
:1084F00004D15C6814B102EB811010BD0131042974
:1085000003F14003F2D10020F7E700BFB4070020D9
:108510002DE9F34150F8283C10F82C6C1033044638
:1085200010D1036950F8202C990739D5EAB913F016
:10853000040304D11A461946304607F034F80023E4
:1085400044F8283C54F8283C10330BD054E9077504
:1085500054F8148C07F097FD00284CD02C48214685
:1085600007F0CCFE02B0BDE8F08150F8241C01AB4E
:10857000304607F018F810B16FF01503E0E7019AE4
:1085800054F8243C134444F8243C54F8203C9B1AEF
:1085900044F8203C54F81C3C134444F81C3CD1E7FC
:1085A00050F8241C01AB304601F03EFC0028E3D11A
:1085B000019D54F8243C2B4444F8243C54F8203CBE
:1085C0005B1B44F8203C54F81C3C2B4444F81C3CF6
:1085D000002DB4D0304601F0CBFCB5FBF0F303FB2B
:1085E0001055002DABD154F8203C002BA7D03046BD
:1085F00001F062FCA6E744F8180CA4F1100004F0A6
:1086000061FD002DAED0424639463046A847A9E765
:10861000A005002010B54FF02003EFF3118483F381
:108620001288BFF36F8FFFF75DFF50B143681033BF
:1086300007D16FF08B03436000F12C01034807F072
:108640005DFE84F31188BFF36F8F10BDA00500207D
:1086500070B50F4C04254FF02003EFF3118683F320
:108660001288BFF36F8F6368103307D16FF08B03ED
:108670000848636004F12C0107F040FE86F311887E
:10868000BFF36F8F013D04F14004E4D170BD00BF22
:10869000B4070020A005002070B50A4C0A4E002542
:1086A0003146204607F00DFE0122A4F110001146CC
:1086B000013507F087FD042D04F14004F0D10020BE
:1086C00070BD00BFE0070020118502002DE9F041D8
:1086D0000F4B1C6805460E461746ACB14FF0FF32F3
:1086E0004FF0FF330B4804F003FC63683246D3F8C5
:1086F000088029463B462046C0470446054804F00A
:1087000071FC2046BDE8F0816FF00104F9E700BF7D
:10871000B40800205401002000230360044B5A6871
:1087200012B9C3E90000704710605860704700BF7D
:10873000B8080020014B1860704700BFB408002043
:1087400030B585B000230546CDE9023301904FF0E6
:10875000FF330C484FF0FF3204F0CAFB0A4B1C6891
:108760004CB9284600F06EF80446064804F03AFC7E
:10877000204605B030BD636820461B6801A99847B4
:108780002468EDE754010020B8080020024B0022C5
:10879000C3E90022704700BFB8080020024B002246
:1087A000C3E90022FFF7F2BFC00800202DE9F7431C
:1087B00007460C4609B100230B601F4DDFF880907F
:1087C00000264D450FD31D4B1D6885B355F8148CFD
:1087D00001AA41463846143D06F030FF10B3D6B921
:1087E00014BB2E461EE0D5F8008001AA414638464B
:1087F00006F024FF50B116B954B92E4606E0316890
:108800000022404606F01AFF0028F5D11435D8E7BB
:10881000019B2360F1E731680022404606F00EFF1D
:108820000028DDD16D69D0E7019B2360D9E7304690
:1088300003B0BDE8F08300BF280B0300C008002090
:10884000640B0300F8B5184C184F06460025BC42CF
:1088500008D3174B1C682CB3143CB6B9E368E3B9D2
:108860006469F8E72EB9E3685BB928461434054615
:10887000EDE720680022314606F0E0FE0028F2D144
:10888000F3E79847002DF0D1F0E720680022314649
:1088900006F0D4FE0028E1D1E2E79847002D08BF9A
:1088A0000546DDE72846F8BD280B0300640B0300EE
:1088B000C008002038B50C4D0C484FF0FF334FF086
:1088C000FF3204F015FB2B783BB9FFF767FF00F090
:1088D0006DF8044610B901232B700024034804F0FE
:1088E00081FB204638BD00BF221500205401002026
:1088F0002DE9F047048FDFF8B0A0013498B080462E
:108900008946A4B200F10806651EADB2B5F5004F68
:1089100047D04A2305AA2946304606F0F6FD04F55D
:108920007F543F34A4B20746214601230DF10B02C8
:10893000304606F0EAFD002F014603DC002803DC88
:108940002C46E1E7002816DCB8F83830AB4209D1F4
:1089500042466B1E22F8383F4FF400410223304656
:10896000FEF706FF2946304606F06BFD21463046ED
:1089700006F067FDE4E707F160030DEB0307002352
:1089800007F84C3C5246CDF8009003AB05A803967F
:10899000ADF8104006F076FE0028D1D018B0BDE842
:1089A000F0870020FAE700BFF3F602007FB501234D
:1089B000694602200193FEF7B3FF044660BB02AA9A
:1089C00001A90220FEF7D4FF044610B110F10C0FEC
:1089D00022D10399B1F5803F23D2009A00239468F5
:1089E0001846084484421AD30133082BF9D10E4D9E
:1089F000A982EB825368AB602846D368EB6306F02C
:108A000012FF044640B9094E6E602846FFF784FE07
:108A100028466E60FFF78EFE204604B070BD9BB204
:108A2000E5E76FF02004F7E7C808002028000020E1
:108A300030BFFFF7FDBF00BF114B124A2DE9F041D7
:108A4000D518DFF84C80013DB5FBF3F55D430E4BC7
:108A500008EB0304013CB4FBF3F403FB04540E1BCA
:108A600007460A49304607F04AFE7019424600217F
:108A7000083E07F052FE3E6704F10800BDE8F081B1
:108A8000010000000000000004000000640B03006F
:108A900004000000044B99689869884203D0034998
:108AA0004FF080520A607047C814002004ED00E0C7
:108AB000134B9A6A12F0007F9A6A14BF1E201D2081
:108AC00012F0807F9A6A18BF1F2012F4002F9A6A52
:108AD00018BF212012F4802F9A6A18BF222012F4A6
:108AE000003F9A6A18BF232012F4803F9A6A6FEA07
:108AF00002426FEA12429A6218BF2420704700BFF8
:108B000000ED00E010B5194B0246986A9C6A10F41B
:108B1000805F14BF1720162014F4006F9C6A18BFE2
:108B20001820A40509D5986B986A000404D51AB1D9
:108B30009A6A22F400429A6219200C4B9A6A12F443
:108B4000806F9A6A18BF1A20D2050CD49B6A13F45E
:108B5000005F18BF1C20054A936A43F47F43936269
:108B600000230B7010BD1B20F5E700BF00ED00E0F7
:108B700010B51C4B0246986A9C6A10F0100F14BF87
:108B80001120102014F0080F9C6A18BF1220A407AF
:108B900009D5586B986A000604D51AB19A6A22F072
:108BA00080029A6213200F4B9A6A12F0010F9A6AA0
:108BB00018BF142012F0200F9A6A18BF1520D4068F
:108BC00058BF9B6A074B9A6A920642BF5A6A22F4C0
:108BD00000525A629A6A42F0FF029A6200230B70B6
:108BE00010BD00BF00ED00E070B5444B5B689CB069
:108BF0000646C3F30803002585F31188BFF36F8F82
:108C000002F07F40B0F17F4F11D102F00C00082834
:108C10000DD010074CBF0E4601250022033B8DF8F6
:108C20000720032B05D8DFE803F01E5C60592E46B1
:108C3000F3E700249DF807309BB96822314602A86B
:108C400007F05DFD099B002D53D0C3F3080222B944
:108C50006FEA53236FEA4323099302A9204606F0E3
:108C600003FE1CB070BD254BDA6A9107E1D4DA6AC5
:108C7000002ADEDBDA6A5200DBD55A69B16942F4B8
:108C800080725A61BFF34F8FBFF36F8F5A6931F80B
:108C9000021C22F480725A61BFF34F8FBFF36F8FB3
:108CA0004DF60272914209D09A6AD2B242B10DF1E8
:108CB00007010120FFF75CFF0446BBE73468B9E712
:108CC0009A6A12F47F4F05D00DF107010120FFF7DA
:108CD00019FFF1E79B6AB3F5803FAAD3FFF7E8FEDF
:108CE000EAE70DF107010020E4E70DF1070100209C
:108CF000EDE723F4FF7323F00103ADE700ED00E09F
:108D0000024A536943F010035361704700ED00E0DD
:108D1000EFF30880EFF3098101B57246FFF764FFB6
:108D200001BD00BF044800232021C2180133302BAD
:108D300082F80013F9D1704700E100E0FEF784FBF0
:108D4000202080F3118808484FF40061401880F318
:108D50000988EFF314800221084380F31488BFF3DD
:108D60006F8F00F0D5F8000030190020084B9B6889
:108D700083420BD1EFF3058343B1064B5A6842F0AF
:108D800080525A605A6A22F400425A6204F0F8BDD6
:108D9000C814002000ED00E0094A0A4993680968F8
:108DA0009967094958674B6843F080534B6000232B
:108DB00083F31188BFF36F8F9368986F704700BF7C
:108DC000C8140020EC0D030000ED00E021498A6882
:108DD00082F8BDE04FF030001044EFF3098C80E8DA
:108DE000F01F1EF0100F03D102F17C0080EC108AFE
:108DF000202080F31288BFF36F8F174F4FF000666B
:108E00008A698A603E604FF0700414192068134C20
:108E1000206092F9BDE0506F0023536780F3118802
:108E20001EF0100F03D00023E1EE103A03E002F130
:108E30007C0090EC108AEFF3148323F0040383F397
:108E40001488BFF36F8F02F1300090E8F01F8CF3AD
:108E500009887047C814002004ED00E008090020CC
:108E60001EF0040F0CBFEFF30880EFF30980816957
:108E700011F8021C0229FFD001B506F0F7FC01BD74
:108E800040B2002807DB044A4109012300F01F001B
:108E9000834042F82130704700E100E040B20028F2
:108EA0000CDB4309064900F01F00203301228240F9
:108EB00041F82320BFF34F8FBFF36F8F704700BF80
:108EC00000E100E0054B420900F01F0053F82220AA
:108ED000012303FA00F01040704700BF00E100E0FA
:108EE00040B20028A8BF00F1604001F10101B8BF05
:108EF000064B4FEA4111ACBF00F5614000F00F0096
:108F0000C9B2B4BF195480F80013704714ED00E0E3
:108F1000144A08B5144B22F07F029A60BFF34F8FBA
:108F2000BFF36F8FD3F8882022F47002C3F8882033
:108F3000D3F8882042F4A002C3F888204FF04042C2
:108F4000C3F83422BFF34F8FBFF36F8F0023E1EEDE
:108F5000103A03F071FD04F089FDFFF7E3FE03F022
:108F6000B9FD00BF0060020000ED00E042F8203CC7
:108F7000009B42F81C3C019B42F8183C0A49029BAA
:108F800042F8143C4FF0807342F8043C21F0010198
:108F9000002342F8081C203A43674FF47D430265E2
:108FA000C0F8BC30704700BFC9710200114B9B680C
:108FB00083421BD1EFF30580C0B94FF02002EFF3DD
:108FC000118182F31288BFF36F8F1A7B22F00202A5
:108FD0001A73EFF3148323F0040383F31488BFF3AD
:108FE0006F8F81F31188BFF36F8F70476FF015009B
:108FF000704700BFC81400200023E1EE103AEFF3E1
:10900000148323F0040383F31488BFF36F8FBFF33B
:109010006F8F094B9860094B006F1860104681F301
:109020000988002163B681F31188BFF36F8F002296
:109030000023FEF7C9F800BFC8140020080900206B
:10904000014910220A60704710ED00E072B64040FE
:1090500080F31188BFF36F8FBFF34F8F30BF62B6BD
:10906000BFF36F8F704700BF72B6494081F311881C
:10907000BFF34F8F20BF80F3118862B6704700BFE7
:1090800001B5EFF30580A0F110004FEAC0000449DC
:10909000014409C99847BDE801400249084700005A
:1090A000A8090300958A0200024B034A03480121E4
:1090B00000F030B80000042000000020AC0C0300D9
:1090C000084AC2F898000B6823F01F03034343F0DB
:1090D0001003C2F89C308B6843F00103C2F8A03043
:1090E000704700BF00ED00E0044B0522C3F8942058
:1090F000BFF34F8FBFF36F8F704700BF00ED00E0ED
:10910000BFF35F8F024B0022C3F89420704700BF6B
:1091100000ED00E010B5034C0123227806F0C5FBFA
:10912000207010BD23150020F0B5454D2C68082C8B
:1091300085B000F28280FFF7E3FF00200C26844216
:109140000DD1404D404F2C706846FEF7E3FB0024E4
:109150000646A6420AD1FFF7C7FF00201CE0696857
:1091600006FB0011FFF7ACFF0130E8E7009800EBC9
:1091700004114FEA041CCB683B40B3F5000F4AD002
:109180000CD8B3F5001F30D0B3F5800F38D0B3F54D
:10919000801F12D06FF0150005B0F0BDB3F1807FD5
:1091A00042D0B3F1007FF5D150F80C3088684A689E
:1091B00006F06BFB40F4802009E050F80C30886822
:1091C0004A6806F062FB40F0885040F4302003907B
:1091D00028780728CDE90123DCD801A9FFF770FF23
:1091E0002B7801332B700134B3E750F80C308868CA
:1091F0004A6806F04AFB40F0885040F40020E6E759
:1092000050F80C3088684A6806F03FFB40F0007068
:1092100040F40030DBE750F80C3088684A6806F00C
:1092200034FB40F08270D2E750F80C3088684A680E
:1092300006F02BFB40F08870C9E74FF0FF30ABE73A
:10924000B80C0300231500200000F0FF08B5024809
:1092500005F0A0FBFEE700BF6910030008B5044855
:1092600005F098FB404080F311884FF0020002DFC8
:109270006F10030008B50649064821F00701C1F147
:10928000005202F5802205F020FD002008BD00BF3D
:10929000272D00200C090020044A0123C2F8403584
:1092A0004FF080420020C2F87835704700E001405E
:1092B0004FF08043C0B2C3F81C05BFF34F8F054980
:1092C000054BCA6802F4E0621343CB60BFF34F8FD3
:1092D00000BFFDE700ED00E00400FA0520B1034BFC
:1092E000800143F001031847704700BF700B030073
:1092F00010B50C460146084806F087F950B1022C1B
:1093000008D150F8083C2BB11B691BB1BDE81040D7
:109310000068184710BD00BF30090020F8B590F96B
:109320000030002B04460D46174602DB6FF0150097
:10933000F8BD038823F0E0039BB240F20162934240
:10934000F4D1468801791248360A06F050F900280F
:10935000ECD0212E04D0222E0FD06FF08500E7E74D
:109360000368E1885B685B6813F8092F914294BF3A
:1093700029602A603B600020DAE7E38850F80C2C73
:109380009A4294BF2A602B6050F8103CF2E700BF6D
:10939000300900202DE9F04104460E4601791448B9
:1093A000174606F024F90546D0B194F9002000686C
:1093B0006378002A0DDA012B16D155F8083C9BB1D1
:1093C0001D688DB13B4632462146AC46BDE8F041B2
:1093D0006047092B08D155F8083C2BB15D68F0E7D0
:1093E0006FF01200BDE8F0816FF08500FAE700BF72
:1093F0003009002010B50C4601460F4806F0EBF886
:1094000050B1611E052907D8DFE801F00706030700
:109410000D0F012300F8043C10BD002300F8043CAC
:1094200000F8033CF8E70123FAE710F8033C002BAF
:10943000F2D00023F4E700BF3009002010B5046922
:10944000C4E90012A36000236361064B20615968E0
:1094500004F1140211B9C3E9002210BD0A605A6078
:10946000FBE700BF30090020020600F07F0312D5A1
:10947000082B05D1010700F00F0306D50E487047F1
:1094800010F0780F12D100F00F034C2000EB4310C6
:109490000A4B18447047082B05D1020700F00F0350
:1094A00006D50748704710F0780FF6D000207047B7
:1094B000044800EB43107047840A0020380900205C
:1094C000A40B0020A40A00200149024806F016BFA0
:1094D00060090020E00200200146014806F067BE56
:1094E000B401002002480022002303F0B7BD00BFF2
:1094F000B401002013B5124802F06EFD114B9842E2
:109500001AD1114802F0A0F90024104802F0E2F943
:109510000F49104800944FF0FF334FF4806203F07E
:1095200097FE0D490B4806F0B4FD0C480C4906F0B7
:10953000C8FE204602B010BD6FF00400FAE700BF7D
:10954000499702000000AD0BAA100300DC0C0300D9
:1095500030150020E00200209C100300600900206C
:109560006598020010B50E49BFF35B8F002351E8E8
:10957000002F012A03D141E800300028F7D1BFF3C2
:109580005B8F0CD151F8044C1439204605F0D6FC01
:10959000783004D12046BDE8104005F0AABC10BDCB
:1095A0005809002038B5002464F07F00C0B2FFF7EE
:1095B0005BFF013406F0C5F9082CF5D10E4D0024EF
:1095C000E0B2FFF751FF036903B90561013406F00A
:1095D000B8F9082C05F14005F2D1084806F0B1F9B8
:1095E000074BD3F87C2212B9064AC3F87C220648FE
:1095F00006F0A7F9002038BDC80F0020840A00201B
:1096000038090020C80B0020A40B002010B5054C21
:10961000FFF768FF20B14168204606F00EFDF7E72E
:1096200010BD00BF3801002007B500230E480022FE
:1096300001A903F0CFFA90B1FFF7E8FF0A48002232
:10964000002301A903F0C6FA38B901980423406049
:109650000374FFF741FFFFF737FF002001E0019897
:10966000406003B05DF804FB38010020022810B50B
:1096700011D8094B1C5CFFF7D7FF60B100220274C0
:109680000472FFF729FF054B93F824301BB1BDE8A6
:109690001040FFF719BF10BDA710030038090020C4
:1096A000F8B5877806463846FFF7DEFE3B06F578C4
:1096B000044612D5002D43D1FFF7B6FF034600281C
:1096C0003ED00122A5770274032202739C60FFF74B
:1096D00003FFBDE8F840FFF7F7BE4DB1012D2FD1D4
:1096E000FFF7A2FF034658B3657705740573EDE7EE
:1096F000FFF79AFF20B3B278124B12F0800F02F0FE
:10970000080111D041B1D3F8A836E36001230374F6
:10971000022303738460DAE702F00F02142101FBD5
:109720000233D3F80836F0E711B1D3F8A837ECE7E5
:1097300002F00F02142101FB0233D3F80837E4E7EB
:10974000F8BD00BF00700240F0B5064689B0142293
:10975000002103A806F0E1FF3378013B052B21D857
:10976000DFE803F07A0314146A1603238DF814302B
:109770000024FFF759FF0346A0B1047400F108026A
:10978000DDE9050182E8030018461DE00423EDE74A
:10979000B7783846FFF768FE837A044623B1013B69
:1097A000022B43D909B0F0BD3B06F57813D5002D47
:1097B000F8D1FFF739FF03460028F3D00122A5773F
:1097C0000274032202739C60FFF786FE09B0BDE8B5
:1097D000F040FFF779BE55B1012DE3D1FFF724FF2B
:1097E00003460028DED0657705740573EBE7FFF7C5
:1097F0001BFF07460028D5D00123037402230373FF
:10980000846004F10C01B07806F0B3FB134AE16800
:10981000B2F88C328B4206D95B1AA2F88C3202F075
:109820002FFE3846D0E7A2F88C52FAE7304609B04E
:10983000BDE8F040FFF734BF01A802F0FFFD9DF83E
:109840000530052B04D19DF8043013F0600FA9D02A
:10985000034B059301248CE702248AE73809002092
:10986000A40A00202DE9F043A64CDFF89C9285B0B5
:109870008046FFF737FE074610B905B0BDE8F08314
:1098800094F825303A7C3BB9002A00F0868079684C
:109890009D4806F0D2FBECE7042A42D8DFE812F03C
:1098A0007D0005000001160140013B7BBD68032BD4
:1098B00037D8DFE803F0023D5A5F6E69934B002210
:1098C00032607260D3F880143170D3F884147170F0
:1098D000D3F88814D3F88C0441EA00217180D3F8BE
:1098E0009014D3F8940441EA0021B180D3F898147D
:1098F000D3F89C3441EA0323F3800823EB603068FB
:109900007168834B03C311462B68687A984796F9B0
:109910000030002B08DBF38833B1A4F88C3202F05E
:10992000AFFD79684846B4E70023A4F88C32F8E725
:109930006B7F002BF5D02B7F002BF2D000266E77AB
:109940004FF0FF3273482E774FF0FF3306F00CF8DC
:109950006B6901936B68CDE9023601A9687A02F060
:109960007DFB6C4806F002F8DBE72B680121687A82
:109970009847D6E7AB7A6BB9EB7F5BB965484FF098
:10998000FF324FF0FF3305F0EFFF02F0A9FD614811
:1099900005F0ECFF2B680221E9E73A7A042AC0D8E7
:1099A000DFE802F059032367730002F0A5FA0546C9
:1099B0000028B6D102F0D6F9BFF35B8F56490123D8
:1099C00051E8002F002A03D141E800300028F7D1E8
:1099D000BFF35B8FA5D141F8085C41F8105CE069EA
:1099E0006361143905F02DFA9BE7002565F07F00CF
:1099F000C0B2FFF739FD037A13B1407A02F038FFA5
:109A00000135082DF2D194F854311BB194F8550169
:109A100002F02EFF0025E8B2FFF726FD037A13B10E
:109A2000407A02F025FF0135082DF4D194F8743204
:109A30001BB194F8750202F01BFF002002F03EFA01
:109A4000012384F825302368002B3FF46AAF0021FE
:109A50000220984765E7002584F8255002F0ACFE07
:109A6000FFF780FD2368002B3FF45BAF29460420FD
:109A7000EFE7002B3FF455AF02F048FA2368002BC4
:109A80003FF44FAF00210520E3E72268002A3FF4AE
:109A900048AF002B3FF445AF00210620904740E738
:109AA00008F110054FF0FF334FF0FF32284605F064
:109AB0005BFFFFF777FD284605F058FF58F8283C74
:109AC000002B3FF42EAF00210120C2E794F874323E
:109AD0007BB1012584F8895284F88852FFF7A4FDF0
:109AE00038B10E4A057405738260FFF7F5FCFFF785
:109AF000EBFC58F8283C002B3FF413AF00210A2060
:109B0000A7E700BF3809002038010020007002409C
:109B10003C0900207009002058090020A40B0020F7
:109B200006F09EF902F048FE02F012F9FFF76EFD12
:109B3000FFF738FD06F08DF9014802F04DFAF0E626
:109B40004997020038B5164D95F824402CBB05F115
:109B5000380006F0B7FA204600F010FB224601213B
:109B6000E8612720FFF7BCF906F073F9FFF71AFD4B
:109B7000044610B9012385F824300A4B1B680BB149
:109B8000FFF7A2FC4FF08043D3F83834DB0702D54F
:109B90000020FFF76BFD204638BD0024FBE700BF27
:109BA00038090020B4010020074B93F824203AB173
:109BB00093F82530002B14BF00206FF0120070477F
:109BC0006FF01200704700BF3809002038B5104B05
:109BD00093F824300446C3B105782846FFF744FCC7
:109BE00010B96FF0150038BD457223798372638810
:109BF00043602078618810F0080F02D14B1E0B42A1
:109C0000EFD106F0B1F90020EDE76FF01200EAE7BE
:109C10003809002038B5124B93F824200546CAB104
:109C200093F82530B3B1FFF71FFC0446A8B1837A3F
:109C3000012B12D007D9023B012B07D96369A3611D
:109C40000020E06038BD02F053FCF7E7284602F040
:109C5000C7FBF3E76FF01200F4E76FF01500F1E7D0
:109C60003809002038B50E4B93F82420054682B100
:109C700093F825306BB1FFF7F7FB68B115F00804D6
:109C80000AD1284602F0CEFB284602F045FE2046C7
:109C900038BD6FF01200FBE76FF01500F8E700BF6A
:109CA0003809002038B50C4B93F8242005460C46A3
:109CB00062B193F825304BB1FFF7D6FB48B144B100
:109CC000284602F095FB2070002038BD6FF012008E
:109CD000FBE76FF01500F8E73809002070B5134E68
:109CE00096F824300446C3B1FFF7BEFB0546B8B171
:109CF000230705D4204602F095FB204602F00CFE17
:109D00002B7A83B901232B7296F825300BB90020EA
:109D100070BD204602F0ACFDF9E76FF01200F7E7E6
:109D20006FF01500F4E76FF07700F1E738090020D5
:109D30002DE9F043DFF8EC801E4698F8243085B01A
:109D4000074689461546002B61D098F82530002B30
:109D50005DD003065ED5FFF787FB0446002859D087
:109D6000037A002B56D04FF0FF334FF0FF3208F14B
:109D7000380005F0F9FDA37F4BB108F1380005F07C
:109D8000F5FD6FF00A04204605B0BDE8F083A37A24
:109D9000C5B13BB30123A3774FF0000801A93846B2
:109DA000CDE90195CDF80C8002F058F91B4B984293
:109DB00029D084F81E801EBB6FF00404184805F0FB
:109DC000D5FDE0E7E27F02B1E577002BE2D102F0BA
:109DD00097FBB842DED002F083FB114805F0C6FDC8
:109DE0000024D0E7B8F80A30AB42F0D96268B5FB7E
:109DF000F2F302FB1353002BE9D10123E377E6E7EB
:109E0000C6F80080D8E706B135600024D6E76FF0C9
:109E10001204B8E76FF01504B5E700BF0000AD0B02
:109E200070090020380900202DE9F0411D46204B23
:109E3000174693F824200E46002A33D093F8253095
:109E400083B3030631D401B97FBBFFF70DFB044692
:109E500058B3037A4BB34FF0FF3316484FF0FF323D
:109E600005F082FDE3689F42B84628BF984646B990
:109E70003FB905B12B600F4805F078FD0020BDE823
:109E8000F081A1694246304606F039FCA36943449B
:109E9000A361E368A3EB0803E360002DEBD0C5F8F2
:109EA0000080E8E76FF01200E9E76FF01500E6E7E1
:109EB000380900207009002070B51E4D95F8242047
:109EC000034682B395F825206AB31B062ED4FFF70C
:109ED000CBFA044650B3037A43B34FF0FF334FF04D
:109EE000FF3205F1380005F03FFDE368B3B9012604
:109EF00063692677A361637F83B1FFF795FB30B970
:109F000005F1380005F032FD6FF00B0070BD0674EE
:109F100084600673FFF7E0FAFFF7D6FA064805F00B
:109F200025FD0020F2E76FF01200EFE76FF015005B
:109F3000ECE700BF380900207009002010B5084B7D
:109F400093F824300C462BB1FFF78EFA28B1046049
:109F5000002010BD6FF01200FBE76FF01500F8E76E
:109F600038090020014B1860704700BF38090020F5
:109F700008B5074B93F8243023B1FFF775FA20B1E9
:109F8000406808BD6FF01200FBE76FF01500F8E7BE
:109F900038090020084B70B5C31A0D4607499B10BD
:109FA000044659430648402205F044FD2B4601462D
:109FB0002046BDE870401847DC110020B76DDBB6C5
:109FC000B808030073B50C4C0C4A4023041B0093E3
:109FD0000D460B460A49A41061430646094805F0A0
:109FE00056FD011E05DA30462B4602B0BDE8704032
:109FF000184702B070BD00BFDC110020FBFA020060
:10A00000B76DDBB6B8080300002270B50121044625
:10A010001046FEF765FF0F4800F01CFF0E4B9842FC
:10A0200015D100F027FF26690C49304604F0F6FEF2
:10A0300000280BDB012535642469084904F11C0064
:10A0400004F0ECFE002801DBE564002070BD6FF039
:10A050000400FBE795A002000000AD0BE00C03003C
:10A0600070B501460C2309484B43C418D4E90E5679
:10A07000403300221844A26305F0C9FC2DB13246DA
:10A080002B460348BDE87040184770BDDC11002026
:10A09000B808030010B1012804D07047034B1B6CB3
:10A0A0005B0701D1FFF7DCBF704700BFDC11002068
:10A0B00008B54FF02003EFF3118183F31288BFF34B
:10A0C0006F8F124A136843F002001060DA0708D459
:10A0D00081F31188BFF36F8F0120BDE8084000F0C5
:10A0E000E1BE4FF08043D3F80C24D3F80C34DB07E7
:10A0F000EED5074805F08BFC81F31188BFF36F8F15
:10A100000020BDE80840FFF7ABBF00BF2C120020C5
:10A110001C1200201FB500220123CDE90223094AA9
:10A12000CDF800D06B46CDF804D005F0DFFC002858
:10A1300005DB4FF480420023684602F0E7FF05B0DC
:10A140005DF804FB1BFB020010B54FF02003EFF39A
:10A15000118483F31288BFF36F8F074A136823F0CB
:10A160000201DB07116002D4012005F0FAFD84F33F
:10A170001188BFF36F8F10BD2C120020024AC3B2AA
:10A180001C2003FB00207047DC1100202DE9F0416A
:10A190003849BFF35B8F0746012251E8003F41E891
:10A1A00000200028F9D1BFF35B8F33B9324933481F
:10A1B0004B60CB608A6004F044FE7B1E012B2BD8E1
:10A1C000012F07D14FF08043D3F81C3403F0030371
:10A1D000012B21D005F057FF0546F8B9284B1B7815
:10A1E000E3B14FF080430222C3F808230646DFF8AC
:10A1F00094804FF08044D4F81824D4F81834D20353
:10A2000016D503F00303012B01D0012F10D15DB34C
:10A2100086F31188BFF36F8FBDE8F0814FF0200304
:10A22000EFF3118683F31288BFF36F8F0125DEE70A
:10A23000ADB13046FEF718FFD4F81835002BDAD14F
:10A24000D4F80421002AD6D0C4F80431D4F804315B
:10A250000123C4F81835C8F88031A360CBE700218A
:10A26000212003F053FBE7E74FF080430222C3F8BD
:10A270000423D1E7D8110020C8110020F8110020D4
:10A280002C15002000E100E0024B0B60012313605D
:10A29000704700BF30120020004870472C0D0300AB
:10A2A00010B5012211460648064C05F08BFF05F05B
:10A2B000C0FD206005F0B9FD6060002010BD00BF4A
:10A2C00038120020301200204FF08042D2F81015D2
:10A2D000D2F8103501F01E0123F01F030B4343F0A9
:10A2E0000103C2F81035024B00221A70704700BFFC
:10A2F000241500204FF08053D3F83031082B20D1A3
:10A300004FF08042D2F81015CB071AD5D2F810358D
:10A3100001F01E0123F01F030B43C2F81035D2F8E1
:10A3200008315BB1D2F8103523F01F030B4343F023
:10A330000103C2F810356FF08B007047024B012209
:10A340001A700020704700BF241500202DE9F0414D
:10A350000D46164605F069FD31460746284605F0CC
:10A36000DFFB78B3B5FBF7F307FB135353BBB6FB27
:10A37000F7F407FB14642CBBB7421DD84FF0FF3233
:10A380004FF0FF331148DFF8488002F0BFFE05F0C0
:10A390004CFD0746FFF7AEFF044680B9284601F0A2
:10A3A00025FA98F800300BB1FFF78EFFF61B3D44FD
:10A3B000F0D1064802F086FE2046BDE8F0816FF03D
:10A3C0008B04F6E76FF01504F6E700BF38120020A3
:10A3D000241500202DE9F8430E463046194617464D
:10A3E0001C4605F09DFB88B344EA060515F00305FD
:10A3F0002CD1BCB11748DFF864904FF0FF324FF01A
:10A40000FF3302F083FE24F00304AC4206EB0508A0
:10A410000BD1114AD2F80034DB07FBD500240D48DC
:10A4200002F050FE2046BDE8F883FFF763FF50B905
:10A430007959404601F0FAF999F800300BB1FFF76D
:10A4400043FF0435E1E76FF08B04E8E76FF0150494
:10A45000E8E700BF3812002000E00140241500208A
:10A4600030B54068057B01F01F04B2F5001F85B0D0
:10A4700044EA451405D1204605F0CFFC002005B084
:10A4800030BD0025B2F5800FCDE9025514D1B3F1EE
:10A49000007F0CBF042305238DF8083000231946E4
:10A4A00002AA204600F0C6FE234B98423DD101216E
:10A4B000204601F05BF8E1E7B3F1C06F27D0B3F1BC
:10A4C000007F14BF012302238DF80830836823FA2C
:10A4D00001F111F00101E1D1B2F1A07FDED104F070
:10A4E0001F03620903F5E07313D0012A20D1134A38
:10A4F00052F82330DB07D1D40DF107052946204659
:10A5000000F0CEFF0E4B984206D00395C6E703231A
:10A51000DAE74FF0A042EBE7284601F021F8064BBE
:10A520009842F2D06FF00B00A9E76FF01500A6E794
:10A5300051F82330FFDE00BF0000AD0B00030050D8
:10A540000400AD0B10B500F0FBFF044668B900F045
:10A55000BFFF084B98420AD10748214600F09AFFF6
:10A56000224605210620FEF7BBFC002010BD6FF03F
:10A570000400FBE70000AD0B7DA50200420970B5A9
:10A58000034602D0012A17D070BD0D4E32695168C2
:10A590000029F9D003F01F0301250C689D40002914
:10A5A000F2D08A682A4002D04B68304698472CB1D6
:10A5B000236821461C46F2E7024EE7E72346F8E708
:10A5C000E0080300CC0803002DE9FF4147683B7B0E
:10A5D00001F01F0545EA43150E4628460DF1070117
:10A5E000144600F05DFF14F4403F80460DD128462C
:10A5F00005F011FC3D4B984503D19DF8070000F094
:10A60000A9FF002004B0BDE8F0810023194602AA8A
:10A610002846CDE9023300F00DFE344B984214D1A8
:10A62000804503D19DF8070000F094FFA3034ED5A9
:10A6300040F206332340B3F5837F1AD00DD8062BA2
:10A6400018D005D8B3B1022B33D06FF01500D9E77D
:10A65000B3F5807FF9D101230CE040F2022293424E
:10A6600029D0B3F5407F28D0B3F5007FEDD1022388
:10A6700000E007238DF8083084F48033C3F30043EF
:10A68000E0068DF8093054BFC4F3401303232103BF
:10A690008DF80A3013D57A680123B340C2F8083523
:10A6A000002202A9284600F07DFE104B9842A8D057
:10A6B000CBE70423DEE70523DCE70323DAE76203C5
:10A6C00041BF01237A68B340C2F80C35E8E7E306DE
:10A6D0004FF0000354BFC4F3401403241A4602A9E8
:10A6E00028468DF8084000F0A5FDDEE70000AD0B20
:10A6F00008B503690349986303F1080005F00FFEEC
:10A70000002008BD23FD020070B5012383400E4ADE
:10A71000BFF35B8FDC4352E8001F01EA040542E807
:10A720000056002EF7D1BFF35B8F4FF4803282408A
:10A730000648C0F80823BFF35F8FBFF36F8F0B424B
:10A7400014BF0120002070BD6412002000100140E1
:10A7500070B40E49D1E90034D01AC31844F1000492
:10A7600022F07F46C1E90034A6F50013B3F5400F8F
:10A7700009D2074B1B681A0A1B069C19054B42F1AC
:10A780000005C3E9004570BC03F046BA1004002080
:10A79000681200201804002011B3BFF35B8F01235F
:10A7A000104A834052E800CF4CEA030C42E800C153
:10A7B0000029F7D1BFF35B8F0B4A4FF480338340FE
:10A7C000C2F80433094BBFF35B8F1B68BFF35B8F89
:10A7D000C340DB0742BF064B4FF40032C3F80021F1
:10A7E000704700BF6412002000100140601200207A
:10A7F00000E100E00D4B1868010A0006BFF35F8F0F
:10A800000B4BD3F80435181841F10001B3F5801F44
:10A810000AD2084BD3E90023904271EB030303D221
:10A8200010F1807041F10001704700BF68120020F4
:10A8300000100140180400202DE9F04F85B01646A5
:10A840001F469DF840A00446FFF75EFF0190FFF70A
:10A85000D1FFB04271EB070354D23E4B301A67EB85
:10A860000101984271F100014FD23B4B03EB0413FD
:10A87000D3E902239F4208BF96425ED037494FF486
:10A88000803804F1500508FA04F8AD00C1F8488397
:10A890002046ADB205F056FA26F07F4B05F1804513
:10A8A00004F5A87305F58835DC464FF003090293DB
:10A8B000029A2CF07F4341F82230C1F84483D1F84A
:10A8C0000435274A6FF00200C01A604420F07F4030
:10A8D000904232D9286868B1D1F804350393A3EBCC
:10A8E0000B0020F07F40B0F5000F26D9204605F080
:10A8F00029FA039BBAF1000F07D109EB030C09F108
:10A900000109D5E7BAF1000F09D06FF0150520460F
:10A910000199FFF741FF284605B0BDE8F08F0123FC
:10A92000104ABFF35B8FA34052E8000F184342E880
:10A9300000010029F8D1BFF35B8F07490E9823016E
:10A9400001EB0412C8500F9B5360C2E90267002557
:10A95000DDE700BF0100800000040020001001407E
:10A96000FDFF7F00601200207FB51C4C1C4BC4F81B
:10A970000833C4F848331B4B00254FF0FF304FF02D
:10A98000FF31C4F80855C3E902014FF48033C4F81D
:10A990000433154B02264FF400320121C4F804633E
:10A9A0001120C3F880212A46FEF79AFA1120FEF7FB
:10A9B00067FA0E4A0123A360236013600C4B0D4A13
:10A9C0000093CDE9015500232846FFF735FF3046B7
:10A9D000FFF7DCFB284604B070BD00BF001001404B
:10A9E00003000F000004002000E100E064120020DA
:10A9F00051A70200FFFF7F002DE9F7432F4CD4F849
:10AA0000043399070BD5D4F8043143B12C4A002301
:10AA1000C4F80431D4F80431136801331360D4F856
:10AA20000433DA032AD5BFF35B8F264B53E8002F9C
:10AA300022F0010143E800100028F7D1BFF35B8F3B
:10AA4000D30702D4D4F84031C3B10025C4F8405133
:10AA5000D4F84031FFF7CEFE4FF02003EFF3118220
:10AA600083F31288BFF36F8F174BD3E90267B042AD
:10AA7000B94106D282F31188BFF36F8F03B0BDE8EE
:10AA8000F0834FF0FF384FF0FF39C3E90289D3E973
:10AA900000101D604FF48033C4F84833C4F84051AF
:10AAA000D4F8403182F31188BFF36F8F0029E5D0CD
:10AAB000009032463B4628468847DFE700100140B9
:10AAC00068120020601200200004002030B5431CF2
:10AAD000124C85B005D08442A8BF0446012CB8BFF3
:10AAE0000124FFF787FE0E4B0C4DD3E90013401AEB
:10AAF000B0F5000F10D22218AA4228BF2A465218D9
:10AB00004FF0000007490091CDE9010043F1000337
:10AB1000FFF792FE05B030BD2A46F0E7FFFF7F0049
:10AB20001004002051A7020008B5FFF763FE024B96
:10AB30001B68C01A08BD00BF1004002010B5084CE7
:10AB4000012363601120FEF7A9F9064BC4F808330E
:10AB5000C4F84833044B4FF40032C3F8802110BDD1
:10AB60000010014003000F0000E100E04FF08053AF
:10AB7000D3F83021082A06D1D3F83431052B02D876
:10AB8000024AD05C70470020704700BF0B110300E1
:10AB900008B54FF08053D3F83021082A4ED14FF03A
:10ABA00080420021C2F80C11C2F81011C2F8381509
:10ABB00002F54042D3F80414C2F82015D3F8081463
:10ABC000C2F82415D3F80C14C2F82815D3F81014C1
:10ABD000C2F82C15D3F81414C2F83015D3F8181491
:10ABE000C2F83415D3F81C14C2F84015D3F8201459
:10ABF000C2F84415D3F82414C2F84815D3F8281421
:10AC0000C2F84C15D3F82C14C2F85015D3F83014F0
:10AC1000C2F85415D3F83414C2F86015D3F83814B8
:10AC2000C2F86415D3F83C14C2F86815D3F8401480
:10AC3000C2F86C15D3F84434C2F87035FFF796FFAC
:10AC400018B12B4B2B4AC3F88C26FFF78FFF18B196
:10AC5000294BFB22C3F81825FFF788FF70B14FF08E
:10AC600080414FF08053D1F8E42ED3F8583222F0CF
:10AC70000F0203F00F031343C1F8E43EFFF776FF22
:10AC800020B11E4B4FF40072C3F840264FF08053A2
:10AC9000D3F83031082B09D14FF08043D3F800248A
:10ACA000D20744BF6FF00102C3F80024144AD2F85F
:10ACB000883043F47003C2F88830BFF34F8FBFF37E
:10ACC0006F8F4FF08053D3F83021082A0ED1D3F87C
:10ACD0003431052B02D80B4AD35C3BB14FF0102323
:10ACE000D3F808224FF08043C3F8582508BD00BFB1
:10ACF000005000404881030000F0004000900240F6
:10AD000000ED00E00511030030B50468CCB1BFF3DD
:10AD10005B8FB4FA84F3C3F11F03DBB201229A40C4
:10AD200024EA020250E8005FA54204D140E8002C6A
:10AD3000BCF1000FF6D1BFF35B8FE6D102480B7078
:10AD400030BD0248FCE700BF0000AD0B0200AD0BB8
:10AD500010B50368CB40DB0714D401238B40026895
:10AD6000BFF35B8F43EA020150E8004F944204D1E5
:10AD700040E8001CBCF1000FF6D1BFF35B8FEED1B1
:10AD8000014810BD0148FCE70000AD0B0400AD0B0D
:10AD9000F7B5044618B1012823D003B0F0BD4FF039
:10ADA00080430222C3F808230122DA60C3F80401B9
:10ADB000D3F80431064601238DF8073042F21075AE
:10ADC0004FF08047D4B1012CE7D1D7F80C3403F40D
:10ADD0008033AEBB83B3012004F0C1FF013DF4D149
:10ADE0002AE04FF080430022C3F808035860C3F8FC
:10ADF0000021D3F800310DF10706DCE7D7F818344D
:10AE000003F480333EB9002BC7D0012004F0A7FF24
:10AE1000013DF3D1C1E7D7F8182402F003023260F4
:10AE2000002BBAD09DF80700012803D104F097FF4A
:10AE3000013DC7D1012CB0D1054B00225A71ACE7BE
:10AE4000D7F80C2402F001023270002BEAD1F3E7AC
:10AE50006C120020044B1A7922B9012218609A80E2
:10AE600002487047024870476C1200200000AD0B8A
:10AE70000C00AD0B08B5094B1B682BB10020FEF789
:10AE800021F808B9FDF7FCFF4FF080430022C3F81A
:10AE90001825034B01221A7008BD00BF6C12002058
:10AEA0002515002010B510B1012843D010BD4FF07A
:10AEB0008043D3F81814D3F81824C80321D502F01E
:10AEC0000303012B04D013B10020FFF761FF00231F
:10AED0004FF080420220C2F8183508224FF48273E6
:10AEE00003F180430021196002F180421C680124B3
:10AEF0001460154A12680AB34FF08043C3F8040384
:10AF0000D4E7D3F81424D107E1D5D3F81C24920751
:10AF1000DAD40D4A12681AB10222C3F80423C5E735
:10AF2000D3F80421002AFBD00022C3F80421D3F86F
:10AF30000431BBE700224FF48073D1E71A68002A7E
:10AF4000FCD019601B68B1E76C12002010B54FF0FF
:10AF50008043D3F800216AB10022C3F80021D3F85E
:10AF600000210122C3F80823114B587910B95A71F6
:10AF70001B6898474FF08043D3F8042172B1002238
:10AF8000C3F80421D3F80421D3F81824D3F81824E3
:10AF9000920704D10122C3F818259A6010BD02223D
:10AFA000C3F80823024BBDE810401B680120184776
:10AFB0006C120020036803F01F025B09026004D0DA
:10AFC000012B034818BF002070474FF0A040704786
:10AFD00000030050034A430900F01F00D35C1844EB
:10AFE000C0B270471111030070B50546FFF7F2FFBC
:10AFF0000C4C08300E4634F81030DA0508D5C3F38F
:10B00000432304EBC302284654F833305268984770
:10B01000A3682BB1E26831462846BDE87040184766
:10B0200070BD00BF4400002010B5FFF7D3FF124AE7
:10B03000083032F81030D9051CD5C3F3432123F46E
:10B04000F85322F8103002F10E04002034F8023FC9
:10B0500013F4807F03D0C3F3432399420AD0013015
:10B060003028F3D1002342F831300448BDE81040C5
:10B07000FFF76EBE10BD00BF44000020BC000020E2
:10B0800008B5FFF7A7FF034B083033F81000400B5B
:10B0900008BD00BF4400002008B5FFF79BFF034B2D
:10B0A000083033F81000C0F3401008BD4400002001
:10B0B000034611F0010010B5CCB20DD1A207C4F3C4
:10B0C000400012D5094AD2F820055860C2F8200580
:10B0D000003818BF012008E04FF0A041D1F820252A
:10B0E0001A60C1F82025002AE8D010BD00030050E6
:10B0F000F0B5054600200446012607468C420BD1D8
:10B10000114BD3F87C2132B10022C3F87C21D3F853
:10B110007C3140F00040F0BDE3B29B0003F580724B
:10B120009B0806FA03F31D420BD002F1804202F5A0
:10B13000C042D2F800C0BCF1000F02D01760126804
:10B1400018430134DAE700BF0060004008B5FFF79C
:10B1500041FF044B083033F8100080F00200C0F3C8
:10B16000400008BD4400002010B50446FFF794FFDE
:10B17000C0B12046FFF7EAFFA0B12046FFF780FFED
:10B180000B4A01238340C2F8083303B29B0003F14A
:10B19000804303F5C043D3F8102522F00302C3F81F
:10B1A000102510BD20460021BDE8104004F024BE4B
:10B1B0000060004073B50446FFF70CFF184E00F125
:10B1C000080536F81530DB0727D52046FFF7CCFFFA
:10B1D0002046FFF761FF40B12046FFF751FF114BBA
:10B1E00000F5A270002243F820202046FFF71CFF44
:10B1F000002301A826F815300194FFF7DBFE019B20
:10B2000000EB8300084BD0F80027134043F0020303
:10B21000C0F80037054802B070BD0548FBE700BF25
:10B220004400002000600040F0F8FCFF0000AD0B7F
:10B230000400AD0B2DE9F04385B0064615461F46C8
:10B24000FFF7C8FE044611B3DFF8448100F1080996
:10B2500038F819309B0703D53046FFF71DFF18BBA0
:10B260000023CDE900338DF80E308DF80F300DF14D
:10B270000F020B4630460DF10E0104F074FD38F854
:10B28000193023F0020343F0010328F8193055B3B5
:10B290003F4B95F800C06A6804F1080033F81010BD
:10B2A00011F0020F02D0B2B13A481EE021F02001A5
:10B2B000C904C90C23F810106AB1BCF1030FF3D80C
:10B2C0006A6892F800E0BCF1000F11D1324A0EF525
:10B2D000A27E42F82EC033F8102022F01C0242EA6F
:10B2E0008C0223F810204FBB2C4805B0BDE8F0833A
:10B2F0004FEA8E0202F1804202F5C04241EA4E312D
:10B30000D2F8105525F00305C2F81055D2F81055A3
:10B3100025F44F3525F44075C2F810553502D2F8A2
:10B32000108505F47C5545EA0C4545EA080541F0D1
:10B33000200123F81010C2F81055CCE7D7E9008798
:10B340003046FFF771FEB8F1000FCDD0104DD5E9B2
:10B350000023904503D19F4201D1002209E010480B
:10B360000DF10F01FFF7D0FC0C4B9842BDD19DF8B9
:10B370000F2045F8328005EBC20308345F6035F8D2
:10B38000143043EA422343F4807325F81430ABE7CA
:10B39000440000200400AD0B006000400000AD0B35
:10B3A000BC0000202DE9FF4104461646FFF712FEBF
:10B3B000054629B32046FFF7C9FE18B12046FFF71E
:10B3C0006BFE18BB304F05F1080837F8183013F042
:10B3D0001C0F02D04B78012B18D001238DF80F30B1
:10B3E0000023CDE900134A1C8B1C20460DF10F01F0
:10B3F00004F0B9FC37F8183043F0030327F818308D
:10B40000002E3ED02046FFF7A1FE18B11F4804B021
:10B41000BDE8F08196F800C01B4F6146890001F13C
:10B42000804101F5C041C1F8100505F1080037F869
:10B43000105025F02005ED04ED0C27F8105072781F
:10B44000FAB1D1F81035B67823F4991323F4F853F0
:10B45000C1F8103512042302D1F810E502F440328D
:10B4600003F47C53134345EA4C35320543EA0E039B
:10B4700002F4801245F02005134327F81050C1F85C
:10B4800010350348C3E700BF440000200400AD0BA3
:10B490000000AD0B014BC3E90201704744000020DE
:10B4A00010B50446FFF7F8FD50B12046FFF792FDB6
:10B4B000044B083033F8103003485B0B0B7010BDA1
:10B4C0000248FCE7440000200000AD0B0400AD0B77
:10B4D00038B5174D95F8804044BB2146602205F1F0
:10B4E000100005F01AF9286F214688420ED1114B41
:10B4F0000022C3F87C210620D3F87C31FDF7C0FC84
:10B5000001230D4885F88030AB6738BDCAB2920080
:10B5100002F580737C2A04BF03F1804303F5C04326
:10B5200001F1010104BF1C601B68DEE70348ECE782
:10B5300044000020006000400000AD0B0500AD0B92
:10B54000034B93F88000003818BF0120704700BFFC
:10B550004400002001460148FFF7FABBB800002074
:10B5600001460148FFF7D0BBB800002013B5284BB7
:10B57000D3F80423002AA4BF4FF00042C3F80423E9
:10B580000446FFF789FD08B32046FFF7DFFDE8B169
:10B590002046FFF775FD03B29B0003F1804202F5E0
:10B5A000C24203F1804303F5C043002414601268D3
:10B5B000D3F8102542F00102C3F8102521B1144A36
:10B5C00001238340C2F8043302B010BD2046FFF7C8
:10B5D00001FD104B083033F81030C3F38203042B05
:10B5E00012D0052B12D001A80194FFF7E3FC019BB8
:10B5F000D0F81015D94001F001010231204602B007
:10B60000BDE8104004F0F8BB0321F7E70221F5E79D
:10B6100000600040440000202DE9F04F694BDFF846
:10B62000B081D3F80403D8F87010C0B289B040F0EC
:10B630000040FFF75DFD051E2FDAC24600235AF8D1
:10B640007C1F06A8CDE90633FFF732FD5E4B019360
:10B650000DF118094FF0000B019A12F8013B01920D
:10B66000DA0803F007031AF8022022FA03F3DA07D4
:10B670001CD409F10409BBF1000F14D0D8F87010E4
:10B680004FF00040FFF734FDD8F87C1006A8FFF714
:10B690000FFD0028DAD125F000450124002D79D1D5
:10B6A00009B0BDE8F08F4FF0010BD5E7474B5B4485
:10B6B0000293D9F800100029DBD0029B91FAA1F186
:10B6C0001C78B1FA81F141EA44142046FFF782FC6C
:10B6D0000830059438F81070C808BB0819F8002025
:10B6E000039301F00701012303FA01F122EA0102A9
:10B6F00009F8002005A8FFF75DFC059A039B02F5F9
:10B70000E072C7F3820650F822205B073746C2F387
:10B71000014224D520463946D6B2FFF765FC05A87C
:10B720000594FFF747FC059B03F5E07350F82330C1
:10B73000C3F301439E4207D10021204604F05CFB85
:10B740003146204604F058FB05A80594FFF732FC6B
:10B75000059B012202FA03F3C0F82035A9E7022A6B
:10B760000CD10321204604F047FB06F00503012B12
:10B77000EAD139462046FFF737FCE5E702212046AB
:10B78000039204F039FB032EF3D0039A032ADBD192
:10B79000022EEDE795FAA5F3B3FA83F304FA03F268
:10B7A0009B0003F1804303F5C04325EA0205D3F86B
:10B7B0001005D3F81015C0F30520C1F30141FFF7C0
:10B7C00013FC6BE70060004021110300211103000E
:10B7D00044000020044AD2F80034DB07FBD50160A6
:10B7E000BFF35F8F704700BF00E001404FF0805310
:10B7F0001A69B0FBF2F302FB130373B9084B022280
:10B80000C3F80425C3F80805D3F80024D207FBD5F4
:10B8100000220448C3F8042570470348704700BF5E
:10B8200000E001400000AD0B0A00AD0B10B5054C67
:10B830000123C4F80435FFF7CDFF0023C4F8043515
:10B8400010BD00BF00E0014010B5184C237853BB79
:10B850000278C2F34003920712D54FF08053D3F819
:10B860003021082A0BD1D3F83431052B07D8104AE0
:10B87000D35C23B14FF080430122C3F83826012363
:10B880004FF08042C2F88035037803F00103C2F81C
:10B8900078350020FDF716FB08B9FDF7F1FA012312
:10B8A0000448237010BD0448FCE700BF26150020A3
:10B8B000231103000000AD0B0C00AD0B4FF08043D3
:10B8C0004FF46072C3F80823014B00221A607047DE
:10B8D0007412002008B5FFF7F1FF03680BB1014AAD
:10B8E000136008BD7412002010B54FF08043D3F8E8
:10B8F0000443620707D54FF4847004F09EFA10B138
:10B900001E4B1B689847A30608D54FF48A7004F0B5
:10B9100094FA18B11A4B00201B689847600608D5A6
:10B920004FF48C7004F089FA18B1154B01201B6894
:10B930009847210608D54FF48E7004F07EFA18B1AE
:10B94000104B00201B689847E20508D54FF4907013
:10B9500004F073FA18B10B4B01201B689847A3053C
:10B960000AD54FF4927004F068FA28B1054BBDE88F
:10B9700010401B680220184710BD00BF7C12002039
:10B9800078120020741200204FF08053D3F8302139
:10B99000082A06D1D3F83431052B04D8034AD05CE9
:10B9A0007047002070470120704700BF2911030035
:10B9B000054B10F0800FA3F1900208BF134600F072
:10B9C0000F0003EB001070472814002007B5074A4A
:10B9D00000231370064A137001230193054B01A83D
:10B9E0001B68984703B05DF804FB00BF2A150020D0
:10B9F00029150020C014002013B5194BD3F80044BA
:10BA0000C3F80044E105D3F8003408D5154B0122F2
:10BA10001A7002230193144B01A81B689847A205D2
:10BA200008D5104B00221A70032301930E4B01A876
:10BA30001B689847630510D50A4B1A786AB1002233
:10BA40001A70074B0122C3F808259A659B6D0423E1
:10BA50000193054B01A81B68984702B010BD00BFB9
:10BA6000007002402A150020C01400204FF020036F
:10BA7000EFF3118083F31288BFF36F8F0A4BD3F873
:10BA8000001C032261B949F27531C3F8001CC3F8E8
:10BA9000142DC3F8001C80F31188BFF36F8F70471B
:10BAA000C3F8142DF7E700BF00E006404FF0200375
:10BAB000EFF3118083F31288BFF36F8F0A4BD3F833
:10BAC000001C61B949F27532C3F8002CC3F8141D8B
:10BAD000C3F8002C80F31188BFF36F8F70470022EA
