:020000022000DC
:1060000080A30020B1DF020039EF040085DF020029
:1060100085DF020085DF020085DF0200000000004E
:10602000000000000000000000000000D5E00200B9
:1060300085DF02000000000041E0020085DF020071
:10604000F5E20200B52E0400F5E20200F5E20200DE
:10605000F5E20200F5E20200F5E20200F5E20200DC
:10606000F5E20200F5E20200F5E20200F5E20200CC
:10607000F5E20200F5E20200F5E20200F5E20200BC
:10608000F5E20200F5E20200F5E20200F5E20200AC
:10609000F5E20200F5E20200F5E20200F5E202009C
:1060A000F5E20200F5E20200F5E20200F5E202008C
:1060B000F5E20200F5E20200F5E20200F5E202007C
:1060C000F5E20200F5E20200F5E20200F5E202006C
:1060D000F5E20200F5E20200F5E20200F5E202005C
:1060E000F5E20200F5E20200F5E20200F5E202004C
:1060F000F5E20200F5E20200F5E20200F5E202003C
:1061000053B94AB9002908BF00281CBF4FF0FF311E
:106110004FF0FF3000F00CB8ADF1080C6DE904CE83
:1061200000F008F8DDF804E0DDE9022304B0704770
:10613000704700BF2DE9F04786468C460846089E0A
:10614000154674461946002B40F0C2808542B2FACB
:1061500082F245D94AB1C2F1200300FA02FC2EFABC
:1061600003F3954043EA0C0C94404FEA154EA8B255
:10617000BCFBFEF8230C0EFB18CC08FB00F943EA2D
:106180000C43994528D9EB1808F1FF3704D29945FB
:1061900002D9A8F102072B44A3EB0903A4B2B3FB75
:1061A000FEFC0EFB1C330CFB00F044EA0344A0424F
:1061B00014D92C190CF1FF3304D2A04202D9ACF14E
:1061C00002032C44241A43EA07401EB1D4400023A2
:1061D00034607360BDE8F0874746DDE76346F1E76A
:1061E00092BB431B01214FEA154EAFB2B3FBFEFC3D
:1061F000200C0EFB1C330CFB07F840EA03439845C8
:1062000062D9EB180CF1FF3004D2984502D9ACF1F9
:1062100002002B44A3EB0803A4B2B3FBFEFC0EFB6D
:106220001C330CFB07F744EA0344A7424ED92C1950
:106230000CF1FF3304D2A74202D9ACF102032C4483
:10624000E41B43EA0040C0E7C2F1200320FA03F157
:10625000954090402EFA03F303434FEA154EAFB238
:10626000B1FBFEFC0EFB1C10190C0CFB07F841EAFD
:106270000041884504FA02F422D969180CF1FF3074
:1062800004D2884502D9ACF102002944A1EB0801EF
:106290009BB2B1FBFEFC0EFB1C110CFB07F743EAA3
:1062A00001439F420ED9EB180CF1FF3104D29F42FB
:1062B00002D9ACF102012B44DB1B41EA004192E719
:1062C0006046E3E76146F7E76046A3E76346B7E762
:1062D000834206D916B9002108467BE7C6E900E0EB
:1062E000F9E7B3FA83F78FB9834201D3724508D82F
:1062F000BEEB020460EB030301209C461EB90021A3
:1063000068E73846FAE7C6E9004CF8E7C7F1200C21
:10631000BB4022FA0CF41C432EFA0CF120FA0CF3C9
:10632000B84001434FEA14490EFA07F5B3FBF9F8F8
:106330001FFA84FE09FB18300B0C08FB0EFA43EA27
:1063400000439A4502FA07F240D9E31808F1FF30FA
:1063500004D29A4502D9A8F102002344A3EB0A0310
:1063600089B2B3FBF9F809FB183308FB0EFE41EACA
:1063700003418E452CD9611808F1FF3304D28E45B4
:1063800002D9A8F10203214443EA0040A0FB02988D
:10639000A1EB0E014145CE46434602D306D14D4501
:1063A00004D2B9EB020E68EB04030138002EA6D02C
:1063B000B5EB0E0261EB030101FA0CFC22FA07F3C4
:1063C0004CEA0303F940C6E9003198E74046C5E7C7
:1063D0004346D9E710F8012B11F8013B012A28BFE9
:1063E0009A42F7D0D01A7047034611F8012B03F8F0
:1063F000012B002AF9D17047034613F8012B002A1C
:10640000FBD1181A01387047F7B5404DD5F85C310B
:10641000996811F0010124D101AA40F6034008F067
:1064200081FF044600286DD1019CE3681B78ABB95D
:106430000AF03EFABFF35B8FD5F8D430BFF35B8F21
:1064400005F1D40203F00903BFF35B8F52E8001F8C
:1064500042E800300028F9D1BFF35B8F20461FF0DF
:10646000E3FF01AA002141F2030008F05BFF0446AC
:10647000002847D1019B264EDA68D2F80100D2F8F5
:10648000051003C618461FF0CFFF214601AA41F2AE
:10649000010008F047FF0446A0BB0198C3685A7882
:1064A00085F870205A88A5F872201A7985F871202D
:1064B000B3F80720A5F87420B3F80530A5F87630B6
:1064C0001FF0B2FF214601AA41F2020008F02AFFA4
:1064D0000446B8B9019FFA68531C413218685968DC
:1064E000344603C4083393422646F7D1094828F0BE
:1064F00000FE38461FF098FF95F87C305B060BD401
:106500006FF01204204603B0F0BD00BF3000002041
:10651000A8000020B000002001AA002142F20300E0
:1065200008F000FF04460028ECD1019BB64EDA6863
:10653000D2F80100D2F8051003C618461FF074FF08
:10654000214601AA42F2020008F0ECFE04460028AF
:10655000D8D1019CE368B3F8012091B249B1D97850
:1065600039B1A5F80421DA78114606F128002DF09A
:1065700086FE20461FF058FF95F87C6016F0200636
:1065800018D1022140F66D4008F070FE0446002844
:1065900000F0CC8002210C302CF094FE012303701B
:1065A00046702146324640F66D4008F0BBFE044678
:1065B0000028A7D195F89C301F0712D501AA002109
:1065C00042F21C0008F0AEFE044600289AD1019861
:1065D000C368D3F80120D3F80530C5E938231FF08C
:1065E00023FF95F8D8309E0624D50DF102016846A8
:1065F00029F0A0F80446002884D1042142F22400A6
:1066000008F034FE0646002800F0908004210C308B
:106610002CF058FEBDF800300380BDF802304380F6
:106620002246314642F2240008F07CFE044600284F
:106630007FF468AF95F8D8305C0610D501AA002128
:1066400042F22A0008F06EFE044600287FF45AAF9A
:106650000198C3685B7885F820311FF0E5FE0821BA
:1066600042F2010008F002FE044600285ED0082134
:106670000C302CF027FE95F8D81011F0400F024690
:1066800040F2022308BF032388074CBF43F02C00CD
:1066900043F00C0095F8D9308F0648BF40F0400019
:1066A00013F0090F95F8A23018BF40F4006003F012
:1066B0000603CE0748BF40F01000062B08BF40F489
:1066C000C070002128F0A7FE2146002242F20100FE
:1066D00008F028FE044600287FF414AF95F87C30BB
:1066E000B5F80411980624D4C9B901AA41F20500ED
:1066F00008F018FE044600287FF404AFB5F8043112
:10670000019C4BB9E368B3F80120A5F804219A88ED
:106710003E4811462DF0B3FD20461FF085FE0821AE
:1067200040F6014008F0A2FD044638B96FF0680455
:10673000E8E60029F3D16FF00404E3E608210C3009
:106740002CF0C0FD95F8D830D907024653BF4FF062
:1067500000512BA1D1E900012D4828F05CFE214613
:10676000002240F6014008F0DDFD044600287FF4D9
:10677000C9AE014601AA4FF6014008F0D3FD044618
:1067800020BB01981FF050FE214601AA4FF602409F
:1067900008F0C8FD0446C8B90198C368B3F80130D1
:1067A000A5F8C1301FF040FE95F8C1305B070DD54C
:1067B00001AA21464FF6034008F0B4FD30B9019814
:1067C000C3685B7885F8C0301FF02EFE29F02BFAE5
:1067D000044600287FF496AE0BF096FA0446002893
:1067E0007FF490AEEB79002B3FF48CAE0821094882
:1067F00028F077FD09F032F984E600BFAFF300809E
:10680000908800020080002008010020380100204C
:1068100010880002040100202DE9F843D0E90C356E
:10682000D0F82C805C193034A0450F46164619D894
:106830001D4DA3FB05011AA3D3E90023FFF760FC5C
:106840000346A4EB0800A0FB050123F07F4414A33A
:10685000D3E90023FFF754FC20F07F403C60306018
:10686000BDE8F883DFF840900DA3D3E90023A8FB2F
:106870000901FFF745FC044605F1300008A3D3E900
:106880000023A0FB0901FFF73BFC24F07F4420F02C
:106890007F403C603060BDE8F88300BFAFF300800C
:1068A0008D49FD1A0700000000CA9A3B0000000055
:1068B0009FED0D7B124B134A1348144910B483ED1E
:1068C000007B9FED0B7B82ED007B9FED0B7B104BE4
:1068D0004FF0FF34002281ED007B04601A605DF808
:1068E000044B12F09FBA00BFFFFFFFFFFF1F000025
:1068F00000000000000000001F0000000000000079
:10690000B0010020A02800203C510020A801002058
:106910003451002000000000002800F05F812DE9C4
:10692000F04FB54C94F86A2012F001058DB040F09C
:10693000A78194F82500FF2300F0030084F8263097
:106940001BF098FD94F86A00420727D494F8292098
:1069500094F8353004EB820204EB8303D66AD3F853
:10696000388086B1A448314614F0E0F933785B06EC
:1069700005D506210FF086F9002800F083819E4896
:10698000414614F0D3F9337813F00E0F40F0B7807E
:10699000236A93B10C200DB0BDE8F08F2A4604F1B4
:1069A0006B01C0F3C0001BF001FFFF2884F8260034
:1069B000CCD028461BF0A4FDC8E711F05DFB814652
:1069C000002800F0718111F063FB8246002800F07E
:1069D000688114F0D9FD0546002800F06781D0F8E1
:1069E00088004FF6FF732B8505F11C0B002800F083
:1069F0004F8105F1780105F17C020FF04FF9B5F8F0
:106A000076307E4A23F4EF6323F0070343F4887360
:106A100043F00103A5F876301346D2F80120C5F8FB
:106A20009B21C5F8A12113F8012B9B88A5F89F3164
:106A3000A5F8A53195F89A3102F0010262F300033E
:106A400062F3410385F89A3195F8393003F03F033A
:106A500063F07F0385F8393095F88E3023F0070313
:106A600085F88E3095F83C3023F00703002785F831
:106A70003C304FF4C023C5F888312846C5E9127769
:106A8000C5F88870A5F88C706F86C5F82E7085F8EB
:106A90003B702F65A5F88E71A5F8847117F042FB45
:106AA00085F85071C5F8549115F02CF895F894318B
:106AB00060F3020385F8943115F02AF895F89431C3
:106AC00060F3C50385F8943195F8803167F341038D
:106AD00085F880310121284615F07AFC05F1D400B3
:106AE00017F0A8F8C4E9189AC4F820B0C5E90577EA
:106AF0002F70ED611CF08CFF002840F0C58094F8E9
:106B000024300121C3F342030DF12B008DF82B300B
:106B10000FF062FA0246002862D098F80110304661
:106B200013F0C6FE31233649A360364BB4F86870C3
:106B3000A0FB01010025C01841F107012CA3D3E9F6
:106B40000023C4E9055525706560E560FFF7D8FAB4
:106B5000206110F075FD00F109083FB9357805F0A6
:106B60000F05A5F10105B5FA85F56D0994F8240026
:106B7000236965F3000010F0010584F824004BD070
:106B8000214A0992002010600225204A204F0493D8
:106B90000BAE019305920321CDE902000694434612
:106BA0000090089607972A460B9510F0E7FB3146B0
:106BB00011F028FBA0B9174905914AF2D833009388
:106BC000CDE90300CDE901000797089606944346F6
:106BD000012203210B9510F09DFB43E013F0B4BD9F
:106BE000236A002B3FF4D6AE13F06CFDD2E600BF53
:106BF0008D49FD1A07000000F4510020E6870500CA
:106C000000CA9A3B8C49FD1AE85100202DA90300C7
:106C1000CD77030041A403002B4A2C48049303F2D0
:106C200047130694029591211360A7FB000301FB13
:106C30000731274B0793274B05934FF6FF730992B4
:106C4000022703930BAE1EA3D3E900230B970896EC
:106C5000FFF756FA4346CDE900503A46284603214D
:106C600010F08CFB314611F0CDFA0028B8D194F821
:106C70006A3043F0010384F86A3014F079FA60B1A5
:106C8000002088E6122086E613F01CFD032082E631
:106C900005F18000C5F88800ABE601201BF0CCFBB5
:106CA000EEE7484611F0EEF9072074E6504611F081
:106CB000F5F9484611F0E6F9F6E700BFAFF30080BA
:106CC0008D49FD1A07000000E8510020002AE784E2
:106CD000CD7703002DA9030070B590F824308AB059
:106CE000C3F342030D46044601210DF1230016466D
:106CF0008DF823300FF070F971780246284613F0B2
:106D0000D7FD1F491F4AA0FB0131981841F1070127
:106D100019A3D3E90023FFF7F3F923699842054645
:106D200021D21B1A00220192174A0293174BA21A72
:106D3000A3FB02320221920900230A4409AE099101
:106D400013490591CDE903330321D2B2069600938E
:106D5000184610F073FB314611F054FA38B925612A
:106D600000200AB070BDFBD9C21A0023DBE70C205B
:106D70000AB070BDAFF300808D49FD1A0700000016
:106D800000CA9A3B8C49FD1AF451002089888888F2
:106D9000CD7703000000000038B5194C9DF810E0D5
:106DA00094F848C01CF0010523D163F3420C400164
:106DB00094F83230A1874FEACE0E0EF0180E00F094
:106DC000200040EA0E0023F0380303430D4884F806
:106DD00032309121A2FB000384F848C001FB02314C
:106DE00005A3D3E90023FFF78BF9C4E91000284677
:106DF00038BD0C25284638BD8D49FD1A0700000016
:106E0000A8280020002AE78410B504469DF8080051
:106E100022844FEA411CC000A17D00F018000CF054
:106E2000200C4CEA000C0C4821F038014CEA010C13
:106E3000A3FB0002912184F816C001FB032104A3E7
:106E4000D3E90023FFF75CF9606210BDAFF3008067
:106E50008D49FD1A07000000002AE78400000000A9
:106E60002DE9F047044600F1350190F8480094F808
:106E700032305B4DDFF88081C0F3400060F3861351
:106E80008CB084F8323010F02DFC94F83220A38FAF
:106E90005448E46102F07902002784F832209121FD
:106EA000A3FB0002C4E90577277001FB03214AA375
:106EB000D3E90023FFF724F9651B626C4A4B676036
:106EC000AD08A3FB053502F10903984298BF3A4685
:106ED000C5F3470522644FF031028CBF19460146C5
:106EE000A26005EB4502E760216148F822100646E2
:106EF00010F0A6FB236A00F109074FEA450A002BB0
:106F00004AD00DF12C09AA4408EB8A030993CDF865
:106F100020900694A38F33484FF00008A3FB000293
:106F2000CDF80C80912101FB0321236904932F4BA1
:106F300007932F4B05934FF0020A27A3D3E90023B1
:106F4000CDF82CA0FFF7DCF8104619464FF47A7202
:106F50000023FFF7D5F80435EDB2CDE90160032138
:106F60003B462A46CDF80080404610F007FA4946D5
:106F700011F048F960B994F8483043F0010384F8FF
:106F8000483013F0A9FE08B300200CB0BDE8F0872C
:106F90000C200CB0BDE8F0870DF12C09CDE90A33C7
:106FA00021694B460AAA032001F096F90028AAD1CC
:106FB0000B99104808A3D3E90023A1FB0001FFF7B8
:106FC0009FF80A9B20F07F471F449CE750461BF028
:106FD00033FAD9E7AFF300808D49FD1A07000000AE
:106FE000A8280020002AE784BD86F21ACD77030086
:106FF00061AF030000CA9A3B8452002000000000E9
:107000002DE9F04F05468BB08B46012002219A46B0
:1070100014461EF0A1FF00220221814601200EF03D
:107020008DFE3B494FF4D47228460EF017FE461DE4
:10703000F6B2384B009532460121002010F016FAC6
:1070400010F0FD0F0CD0344A3449354840F62F0378
:1070500026F0D5F9404080F311884FF0030002DF9D
:10706000304BA4FB0348204627A3D3E90023414625
:10707000FFF746F82C4B20F07F47A7FB0331072290
:10708000E01A02FB071168EB01014FF47A7200234A
:10709000FFF736F8CDE90170CDF800B008950695F8
:1070A000296995F9394021480491214931EA24019F
:1070B00028BF014605911F4C07944FF6FE710391BE
:1070C000534632460121002010F024F910F0FD0F44
:1070D0000CD0114A1149124840F6440326F08FF9AA
:1070E000404080F311884FF0030002DFB9F1000F38
:1070F00002D10BB0BDE8F08F0122022110460BB087
:10710000BDE8F04F0EF01ABE8D49FD1A07000000D1
:10711000F828002031B50300446D0500086E050015
:10712000E067050000CA9A3B8D49FD1AA9150400C5
:1071300051170400D9B403002DE9F043C469228D2E
:107140004FF6FF739A428DB000F0888005462046C6
:1071500017F0E0FA95F82830012B00F00F81022B90
:1071600000F00281002B00F0E18094F85071002FB4
:1071700040F0FD80E68DB4F83080002E71D1AA8CED
:1071800008F101060023CDE90A33B6B2002A70D017
:1071900094F93930002BC0F248810023A4F88A31D9
:1071A00095F82630D90740F1EF800023A4F88E31FE
:1071B0000DF127023146204616F0F0FF743000F042
:1071C0004681B4F888312BB1B34240F20D819B1B4C
:1071D000A4F88831B4F884312BB1B34240F2FB807B
:1071E0009B1BA4F88431258E17B9A84500F0EA80CE
:1071F0000135ADB294F8D13013F001065AD1DDE972
:107200000A130A46002B40F0ED80002900F0DC80D4
:107210001E461846228DE4690694CDE903570532CF
:10722000A74D0290CDE90016D2B2012100200595AC
:1072300010F004F910F0FD0F10D011F00DF8844299
:107240000CD0A04AA049A14840F2155326F0D7F827
:10725000404080F311884FF0030002DF0DB0BDE81D
:10726000F083AA8C46440023CDE90A33B6B2002A43
:107270008ED195F82630DA0797D4B4F88A31002BEE
:1072800000F08280B34240F2FA809B1BA4F88A315E
:10729000B4F88E31002B8BD09E4280F0DE809B1B99
:1072A0009BB20022062BA4F88E31228600F2AC801D
:1072B00001277DE794F939206FF30003002A84F851
:1072C000D13077DB94F87600C0F3C00100F00700FE
:1072D0001CF004FAB4F86E20B4F86C30134403F2D6
:1072E000D51303447A4A7B480721E3FB002110466B
:1072F00071A3D3E90023FEF703FFDDE90A1320F0B1
:107300007F4220692261904235BF161A801A002000
:1073100000260A46002B7FF47DAF56EA010C7FF46D
:1073200079AF002850D019461E4673E794F88E3086
:1073300003F01803182B7FF418AFA18DB4F8862141
:107340008B1D9A42C4BF931F5B1AB4F88211CCBF45
:107350009BB21346994200F08C80A4F88231A4F8C5
:107360008431A4F8882100E73D2784F8507139461C
:1073700020460DB0BDE8F04314F0E8BC0023A4F8AB
:107380008831A4F88431F0E6B4F88E31002B83D133
:10739000628DB4F88C3140F2E24101FB02F242F21C
:1073A000107101FB0323013BB3FBF2F39BB2A4F882
:1073B0008E316FE794F87700012100F007001CF090
:1073C0008FF987E73D4615E7002D4BD00026114683
:1073D000304633461EE70023A4F88431204616F0D9
:1073E0007DFF00E7304615E710F09EFE01460028BD
:1073F0003BD00023A4F88831238DC3801B23037165
:10740000006810F05BFEE5E694F939309342BFF670
:10741000CFAEB8F1000F7FF44BAFD4F878315A08F3
:10742000DB0743D4C4F87821C2E628460AAA0BA990
:1074300004F1D409FFF7F0F9484616F03DFC18B303
:10744000484616F039FC18B300232386A5E69DF8BC
:107450002710204614F07AFC00E70821204614F09B
:1074600075FCFBE6002FB1D1F8E60123A4F88831C2
:10747000B0E6B4F8881100297FF477AE6FE73E21BB
:10748000204614F063FCE9E6FF2014F017FCD7E770
:107490000246D4E91E010EF019FC0028D4D194F85C
:1074A0003C30580744BFA38D238676E642F0004265
:1074B000C4F87821FCE600BF8D49FD1A07000000E2
:1074C00099B40300446D0500546E0500E0670500A3
:1074D0008C49FD1A00CA9A3B2DE9F04F87B0CDE9DF
:1074E0000432BDF8442003780292BDF84820BDF86C
:1074F0004080BDF84C50468EB0F82E90B0F814B1D4
:10750000019104460392002B00F0CB80013EB6B2FD
:10751000A368D4F80C71721B92B2002B009209DAA6
:10752000E168626823F0004391422CBF7F18BF18C6
:10753000A360FF1A009A638D13FB02F39BB2B3FBA7
:10754000F8F218FB02F080B283421FFA82FA80F050
:107550009780C01A40F2E2425D4902FB00F0A0FBB6
:10756000010159A3D3E90023FEF7CAFD20F07F40B3
:107570000744D94494F839304D44AD1B554440F28A
:10758000E246DB09E58506FB08F500F08E80226CFB
:107590000099A36CDFF838B102FB1133A3641CF02F
:1075A00089FA814694F87401C0F342001CF084FA11
:1075B000059B814406FB03F305FB09F9236509F5E7
:1075C0007429444B09F23F29A3FB09394FEA994337
:1075D00003FB0AF02364A5EB0309A36C6A080344C8
:1075E000963A934228BF1346C4E911230023C4F8F6
:1075F0007C31A0FB0B0134A3D3E90023FEF780FD0F
:10760000049B3F1A3448A0FB0330800A06FB00F0BD
:107610002DA3D3E90023A0FB0B01FEF771FD20F0A1
:107620007F46029BA385039BA4F88C312946204604
:10763000A4F82A8016F0EEFD284BA18D2B44881D5E
:10764000B3FBF5F39AB29042A4F8862102D2521A03
:10765000063A92B2019BA4F8822113B10023A4F848
:107660008E313B464A4631462046FFF7C9FC94F826
:10767000803143F0010384F8803107B0BDE8F08F1A
:1076800008FB1231124840F2E24389B203FB01F1D8
:10769000A1FB00010CA3D3E90023FEF731FD3F1A43
:1076A00067E74E445E44B6B232E7049B0848A3FB4A
:1076B000000105A3D3E90023FEF722FD20F07F4659
:1076C000A9460136ADE700BF8D49FD1A070000004D
:1076D00000CA9A3B83DE1B435917B7D17FC3C90148
:1076E0002DE9F04F04460B68077F1668D3F800A019
:1076F000638CD0F81E0095B015464A7CADF84C302E
:10770000FF2AC7F3801389460D9212908DF83F30FF
:1077100072D198461A4612AB93E803000DF1400B64
:107720001090ADF84410F8090AF1710127680A9128
:107730005B460C900B9714F0F1F90A99002843D19D
:1077400096F89A310C9A0A9068F3410362F30003A9
:1077500086F89A311098BBF80430C6F8A101A6F853
:10776000A531DAF87130C6F89B318B88A6F89F31C5
:10777000E38D94F83010A9722B81D4F82A306B6015
:10778000D4F83A30AB6105F1180094F83E3003713B
:1077900005210EF021FC6B7F00F03F0060F3050334
:1077A0006B7794F83F30C3F30401A977A18EE98188
:1077B000012803F01F0389B206D91B3303F01F030E
:1077C0000B2B01D80A9A59BB0022CAF8142095F84D
:1077D00020300B9862F3000385F82030E56801261D
:1077E0002146267110F060FC28682E71294610F0A1
:1077F00065FC15B0BDE8F08F0DF1400B10460DF1A2
:107800003F015A461AF08EFB9DF83F80277F08F112
:1078100002085FFA88F88DF83F8008F0010282E7DD
:10782000D9F800305A60E38E2B82EB8940F2E248AF
:1078300008FB03F71146638E0A93304616F0FEFCF0
:1078400094F83F3096F874215B0963F3430286F89D
:1078500074211CF02FF90C9096F87401C0F34200CB
:107860001CF02AF90C9B184407FB00F0BA4B00F5FA
:10787000742000F23F20A3FB00307B08800C963B75
:107880006862AB6294F8313008FB03F3AB63238F7B
:10789000A6F88C313946304616F0BCFCAF4BB04AE6
:1078A000C6F890213B44B3FBF7F39AB2A6F88621C1
:1078B000298A881D824204DDC1F57F41FA310A44DC
:1078C00092B2A6F882216B68C6F87831234613F885
:1078D0001C2FC2F34018DA0700F104814FF48073C3
:1078E000A3839AF826001BF077F804F12B030028F5
:1078F00000F0EE80626AC4F82B20228D9A800D9BE6
:10790000FF2B00F0E980BDF84C301298A4F8293024
:10791000C4F82500BBF80430A4F8233010989DF873
:107920003F30C4F81F00A377EB8963862B8AA386B8
:10793000B6F88C31E38696F87431C3F3420384F8C9
:107940003830304613F02CFEA881E08021460B9899
:10795000D9F8044010F0A8FBAB89E3801C23D4F8CD
:1079600000B02371B8F1000F40F0D18084F81C8082
:107970002146584610F0A2FB95F85B00B5F8508000
:10798000B5F85240012100F007001BF0A9FE444465
:1079900004F2D514DFF8D4810444834671480721EA
:1079A000E4FB080131230024B360746068A3D3E9C9
:1079B0000023F460FEF7A4FB20F07F4030616D6A85
:1079C0000A9A7D1BD9F80C7040F2E24303FB027760
:1079D0000221224601200EF0B1F9504613F062F95F
:1079E00007F2B2470246A7EB0B07A7FB08011746B1
:1079F00057A3D3E90023FEF783FBCDF804A0D9F801
:107A000008305949009120F07F48BA1C3A3BD2B265
:107A10002046434401210FF06BFD012800F08280D5
:107A20009AF82430DB076AD4304613F0B9FD4F4B87
:107A3000A5FB035A044646A3D3E900232846514632
:107A4000FEF75EFBD9F80830494A0792A3F13A09DC
:107A5000484B069620F07F47A7FB0331E81A464BB8
:107A6000059340F2D113089333694FF0000BCDE931
:107A700003B34FF0070303FB07116AEB01014FF457
:107A80007A720023FEF73CFB0534E4B2CDE90170C5
:107A9000CDF800804B462246012158460FF03AFCB3
:107AA00010F0FD0F0CD0354A354936484FF4E973D4
:107AB00025F0A5FC404080F311884FF0030002DF61
:107AC0000122022110460EF039F915B0BDE8F08F01
:107AD000C4F82B00988012E70022C4F82520A4F8EF
:107AE000292017E7254A28492648F82325F087FC4E
:107AF000404080F311884FF0030002DFEEE60023E0
:107B000001220093184611460FF0B0FC8CE76B7F02
:107B100043F040036B77281D19F0FCFF4FF001087C
:107B2000E88323E710F098FB82453FF479AF134ACE
:107B30001649144840F2792325F061FC404080F357
:107B400011884FF0030002DF6AE700BFAFF3008047
:107B50008D49FD1A0700000083DE1B437FC3C90166
:107B6000404B4C008C49FD1A6D15040000CA9A3B2D
:107B70003D1504008D49FD1AA9150400F472050095
:107B8000086E0500E0670500A46A05005073050053
:107B90002DE9F04F8DB01F46BDF860300793CDE959
:107BA0000501BDF868309DF85C90BDF864B00493A1
:107BB0000020164613F0EAFA002800F0658109F06B
:107BC0000108044640460FF07DFD0390B8F1000F18
:107BD0006DD1169B03993A46404613F09FFF00284B
:107BE00040F06381236A04F11C020892002B65D0E7
:107BF000D4F820A0DAF8005007F0010B9AF85A00E8
:107C0000C0F3C00100F007001BF068FDBAF8521085
:107C1000BAF8502000F2D5130A441344CC48CD4A98
:107C20000721E3FB00211046C7A3D3E90023FEF799
:107C300067FA20F07F40286130461AF03DFC94F846
:107C400033306FF3410384F83330FF2384F834304A
:107C5000002E00F01D81A9F10203012B40F22981C1
:107C600094F84810089869F3420184F8481094F891
:107C700033106BF30001DDE9052384F83310169906
:107C80000968616216998988218504992186009680
:107C90000021FFF7B9F860641BF0BAFE002840F03D
:107CA00013812046FFF7DCF80DB0BDE8F08F062108
:107CB0000DF0E8FF00288CD11220F5E710F0DCF978
:107CC0000990002800F0738113F05EFC054600283F
:107CD00000F06A8120300EF093F905F11C0A0028AB
:107CE00040F01D81032105F124001BF0ABFB079B35
:107CF000D5F888006B854FF6FF73A5F82CB02B855F
:107D0000002800F0198105F17C0205F178010DF0E1
:107D1000C5FFB5F8763023F4EF6323F0070343F48F
:107D2000887343F00103A5F8763095F88E304FF054
:107D3000000B23F0070385F88E300121C5F888B0C9
:107D4000A5F88CB0284614F043FBC5F82EB0A5F872
:107D500032B005F1340019F087FE95F8393060F340
:107D60000503012185F839300DF12F001BF06AFB66
:107D7000049B9DF82F20A5F88C31774B85F83BB0FC
:107D8000A3FB0213DB0803EB4303A2EB830295F88A
:107D90003930A98DA5F88EB103F03F0385F839304D
:107DA00095F83C30A5F884B1053223F0030385F83B
:107DB0003A20079A85F83C3040F2E24B674B0BFBC8
:107DC00002FB4FF4C0225B44C5F88821881DB3FB39
:107DD000FBF39AB28242A5F8862102DD063A521AD6
:107DE00092B2A5F88221284616F09CF959462846F9
:107DF00016F010FA099BC5F85431002385F850316C
:107E000013F080FE95F8942160F3020285F8942126
:107E100013F07EFE95F8942160F3C50285F8942155
:107E200095F88021002363F3410285F8802105F154
:107E3000D40015F0FFFE95F89A21169907F0010B72
:107E40006BF3410285F89A213122AA600023169A29
:107E50006B60EB601268C5F8A12195F89A218988BA
:107E6000A5F8A51169F30002039985F89A210A681B
:107E7000C5F89B218A88A5F89F21C4F820A0C5E9F0
:107E800005332B70ED61B9E60C200DB0BDE8F08F25
:107E90001AF052FF00283FF4DEAE169938463246FB
:107EA0001AF084FC84F83400D5E60B200DB0BDE850
:107EB000F08F00201AF024FB94F8333043F00203D3
:107EC000C14684F83330CBE6256AEB6E63B1244AB1
:107ED0002449254840F21D4325F091FA404080F3A3
:107EE00011884FF0030002DF05F1600105F15C002D
:107EF0000DF0D8FE064600283AD02F68EE66D7F877
:107F00005451002D42D0284610F0BCF8384613F0EA
:107F100041FB0023032023620DB0BDE8F08F104A1F
:107F200012491148C12325F06AFA404080F31188B4
:107F30004FF0030002DFD5E605F18000C5F88800A8
:107F4000E1E600BFAFF300808D49FD1A0700000095
:107F500000CA9A3B8C49FD1AABAAAAAA7FC3C901E1
:107F600080730500386C0500E06705003C6805007B
:107F7000104A1149114840F21F4325F040FA404091
:107F800080F311884FF0030002DFB6E7094A0A497F
:107F90000A4840F2264325F032FA404080F3118827
:107FA0004FF0030002DFAEE7099810F06BF80720EE
:107FB0007AE600BF80730500946D0500E067050058
:107FC0002DE9F04F04468DB090F81C80238D406A57
:107FD000ADF82C30E307C8F3C0170E461546C8F3BA
:107FE00040180A9000F10D810023A383B37C707CBC
:107FF00013F001031CBFD4F81E30C4F82B3004F179
:108000002B0214BF638CC4F82B30FF28938004F13B
:10801000250904F11F0240F0E5800023BDF82C1073
:108020000A98C4F82530A9F80430A777C4F81F00CF
:1080300091803368D3F80090EB8963862B8AA386FE
:10804000B9F83030E3861BF033FD84F838002F6830
:10805000384613F0A5FA0021A881E080384616F0D2
:10806000EDF8D6F804A02068214610F01DF8AB8981
:10807000AAF806301C23DAF800408AF80430B8F178
:10808000000F40F0CC808AF81C805146204610F04A
:1080900015F8BB687A6895F85A00B5F80E80F5684F
:1080A000674C934238BF1346C0F3C00103F1090A7D
:1080B00000F0070040F2E24303FB08F81BF00EFB60
:1080C000002202212D1A01200DF038FE484613F03F
:1080D00033F8A5FB044558A3D3E90023834629467A
:1080E0002046FEF70DF8CDF80490B368554900918D
:1080F00020F07F490BF10402A3EB0A03D2B24B44F8
:10810000012100200FF0F4F910F0FD0F0CD04E4AC1
:108110004E494F4840F23D3325F071F9404080F31D
:1081200011884FF0030002DF4FF0000B5B46032283
:108130000121CDF800B058460FF098F9384613F0F9
:108140002FFAB36806463E48A3EB0A0AA8FB0001D3
:1081500039A3D3E90023FDF7D3FF19463D4B08931C
:108160003D4B069340F26D33079709933B69804678
:10817000CDE904B3104600234FF47A72FDF7C0FF37
:10818000364B0722A9FB0331CDE9028002FB09111E
:10819000E01A65EB01014FF47A720023FDF7B0FF9E
:1081A0000536F6B2CDE900905346324601215846D5
:1081B0000FF0CCF810F0FD0F0CD0234A23492448CF
:1081C00040F26E3325F01BF9404080F311884FF0E8
:1081D000030002DF0122022110460DB0BDE8F04F7E
:1081E0000DF0ACBD04F11E0119F09CFEA37FBDF89B
:1081F0002C200A98C4F825000233A377A9F804209C
:1082000017E7114A1649124840F2BD2325F0F7F846
:10821000404080F311884FF0030002DFE4E66B7FFB
:1082200043F040036B77281D19F074FC4FF00108F0
:10823000E88328E7AFF300808D49FD1A07000000AE
:1082400000CA9A3B1D17040080730500086E0500E4
:10825000E067050021170400511704008D49FD1A3D
:10826000A46A0500000000000538C3B2052B0CD835
:1082700070B580B20D4613F09BF9044618B190F921
:108280003930002B03DA002070BD0020704790F8D1
:1082900076000F4EC0F3C00100F007001BF01EFA7D
:1082A0000C4A00F2B5500721E0FB0621104606A358
:1082B000D3E90023FDF724FF20F07F40286020460B
:1082C00070BD00BFAFF300808D49FD1A07000000AC
:1082D00000CA9A3B8C49FD1A2DE9F04F93B0FF2458
:1082E0000B930B1D0A930023CDE90E33054616466A
:1082F0008DF837409B464FF0040A1F469946984632
:1083000010AB0693564B0593564B03930FAB01935B
:108310000EAB00200093022310930490029033468A
:108320000DF1370229460FF027F9022815D0109BCE
:10833000CBB9FF2C26D03368BB4223D0BAF1000F53
:1083400040D00AF1FF3AFF245FFA8AFA8DF83740ED
:10835000D6E7294600200FF05BF9109B022BF8D0DE
:10836000109B002BE5D0404A404941484FF4F77339
:1083700025F045F8404080F311884FF0030002DFFC
:10838000FF2CD8D19DF83700FF2829D011A9FFF77D
:108390006BFF0028B4D0FF2C0E9F119B0AD04146E2
:1083A000384609930FF04EF90A9B03EB09029042FD
:1083B000099B17D8B8469DF837403768DDF83CB0C0
:1083C00099469DE72B49284A29484FF4FB7325F02D
:1083D00016F8404080F311884FF0030002DFB0E749
:1083E000FF2C34D024480721A9FB000301FB0931ED
:1083F00019A3D3E90023FDF783FE044600B14034FE
:108400001E4AABF57423A3F51073934216D81A488D
:108410000721A8FB000301FB08310FA3D3E90023C8
:10842000FDF76EFE164BA3FB0B2304EB93440B9B53
:10843000044400201C6013B0BDE8F08F0BF1E87B12
:108440000BF5D43B08F1FF380BF5A57BDFE76FF0A8
:10845000090013B0BDE8F08F00CA9A3B000000008D
:108460002D1A0400311A0400CC73050010740500A5
:10847000E0670500187405008D49FD1ABFBDF07F47
:1084800083DE1B43000000002DE9F043C668476807
:1084900073683D491A68D0F80090A7F57423A3F5D6
:1084A00010738B4283B0804607D907F1E87707F550
:1084B000D43709F1FF3907F5A57773681169DD89AC
:1084C000CDF8049006F1100301AA0220FFF704FF83
:1084D00000284ED10199A1EB09031B0237D40846AD
:1084E00049460FF0AFF8034628480721A3FB0002D6
:1084F00001FB032122A3D3E90023FDF701FE346928
:108500000444002C346109DB40F2E24305FB03F331
:10851000A3422FD2E41AA342FCD33461D8F800302E
:108520001A48A3EB0903A3FB0002072101FB032167
:1085300013A3D3E90023FDF7E3FD154BA3FB073796
:10854000A0EB97402044306103B0BDE8F08348467B
:108550000FF078F803460D480721A3FB000201FB4A
:10856000032107A3D3E90023FDF7CAFD3469241AC8
:10857000C7E73469002CD1D103B0BDE8F08300BF58
:1085800000CA9A3B00000000BFBDF07F8D49FD1A74
:1085900083DE1B430000000010B5334C3349002339
:1085A00004F1FF3C14F83320072A02EB820E05D8B1
:1085B00011F83E206FF3451201F83E201CF83320DD
:1085C0006FF300020CF833200133082BEAD1284A5C
:1085D000284C002313700A7863F300020A7091F8A4
:1085E000282063F3000281F8282091F8502063F3DB
:1085F000000281F8502091F8782063F3000281F89E
:10860000782091F8A02063F3000281F8A02091F86F
:10861000C82063F3000281F8C82091F8F02063F3CA
:10862000000281F8F02091F8182163F3000281F82C
:108630001821114A9FED0A7B1370104B83ED007BCC
:108640000F4B236028B1BDE810400E490E482BF0B7
:10865000DDBEBDE810400C482BF0E6BEAFF3008055
:10866000FFFFFFFFFFFFFFFFC55F0020845E0020CC
:10867000C0720020945D0020BF72002018330020DB
:10868000A0BB0D00ED260400E83200200000000031
:108690002DE9F04F8FB00DF137010446DFF8E0A06F
:1086A000DFF8E0800DF136000FF086FD9DF83630E2
:1086B0009DF837B00B930EF0C3FFDAF80060A6FB0D
:1086C000085629A3D3E900230027814631462846CE
:1086D000FDF716FDCDE90777069420F07F44DAF820
:1086E0000400234B0593A0FB08011FA3D3E900233B
:1086F000FDF706FD1F4B20F07F40A4FB033107224E
:1087000002FB0411CDE90370E81A66EB01014FF496
:108710007A720023FDF7F4FC0097CDE901404B4647
:108720000B985A4603210EF0F5FD10F0FD0404D01D
:108730006FF08B000FB0BDE8F08F0F480F4A002399
:1087400022F0AEFA20B9DAF80C000FB0BDE8F08FD5
:108750009DF837209DF836000094234603210EF043
:1087600085FE6FF07300E5E78D49FD1A07000000F4
:108770003D2E04008D49FD1A38600020447B0B001B
:108780005060002000CA9A3B38B50F4D04460EF0E9
:1087900057FFA9680EF056FF696803460B48B3FB04
:1087A000F4F4A1FB00011C4405A3D3E90023FDF769
:1087B000A7FC20F07F40844294BF0020012038BDF8
:1087C0008D49FD1A070000005060002000CA9A3B46
:1087D000F0B5C468636883B00546002B63D11CF014
:1087E00001FF00201CF024FF002108461CF012FFAE
:1087F0000022252108201CF051FF454B019301A8C0
:108800001CF034FF434940F25B601CF0DFFF237A29
:10881000C3F3420262F30613204623721BF06AFB85
:108820001AF08AFA58BB637A9B071FD127682E6813
:1088300038461AF0F1FE06446A6806F10901012083
:108840001DF01EF91DF00AFA204612F037FA811CBD
:108850003246C9B238461AF0EDFE054670BB2046D6
:108860001AF074FE88B9002003B0F0BD012019F0A1
:10887000D7FD4178821C00781DF0A2F8D6E7607A17
:1088800010F0030018BF0120F1E7234A23492448D0
:1088900040F22C4324F0B3FD404080F311884FF0A8
:1088A000030002DFDFE793F820309A0797D01D48D6
:1088B00021461CF055FE1CF043FFD4E7164A1A4926
:1088C000174840F2144324F09AFD184B0721A5FBEA
:1088D000030301FB05310CA3D3E90023FDF710FCD2
:1088E00013490246134824F08AFD404080F3118862
:1088F0004FF0030002DF104821461CF031FE1CF04F
:108900001FFF6FF08B00AFE700CA9A3B000000002A
:10891000D6BE898E55555500C47705004C690500B3
:10892000E0670500BD370400606805008D49FD1A49
:108930007478050048780500C53A0400000000007E
:108940002DE9F041C46894F91630002B8CB0C0F2C8
:10895000FF80636805460E46002B40F0EE80A37D45
:108960006FF30003A3751CF03DFE00201CF060FEB9
:10897000002108461CF04EFE0022252108201CF094
:108980008DFE01200FF01AFD0746002800F0C78079
:1089900007F11C001CF0ACFE874B0B930BA81CF0DE
:1089A00065FE864940F25B601CF010FFA07DC0F3BD
:1089B000410025301AF050FE814821461CF0D0FDC0
:1089C000A37D9B0603D46368002B00F0A58096204E
:1089D0001DF04AF800231A46194618461CF05CFFA1
:1089E0001AF0AAF9002838D1A37D13F0180F59D135
:1089F000D4F800802F6840461AF00EFE07446A68DB
:108A000007F1090100201DF03BF81DF027F91CF0CB
:108A1000B3FF204612F09EFB011DC9B240463A4604
:108A20001AF008FE8046002840F0998016B9636A63
:108A3000002B4ED1636843B1624B0122022100201A
:108A40009D600DF0B1F9002835D120461AF07EFD69
:108A5000D0B900200CB0BDE8F081A07DC0F3C0000B
:108A600019F0DEFC07460DF12B0019F0DDFF7978D7
:108A70008046BA1C38781CF0A3FF9DF82B0000221A
:108A800041461DF0BBF9B3E74F4A5049504840F208
:108A90000B2324F0B4FC404080F311884FF0030016
:108AA00002DFD6E7012019F0BBFC4178821C007878
:108AB0001CF086FF9CE7444A4649454840F206239D
:108AC00024F09DFC404080F311884FF0030002DF4A
:108AD000BBE7414A0792414A059240F2F3120093E4
:108AE0000892CDE90366CDE9016606943B4631461E
:108AF00003220EF00FFC10F0FD0F9BD0324A3849D4
:108B000033484FF4FA7324F07AFC404080F3118824
:108B10004FF0030002DF8DE71CF01EFF60E72A4ADA
:108B200030492B484FF4C57324F069FC404080F372
:108B300011884FF0030002DF2AE7636893F82030C2
:108B4000D90705D4636893F820309A077FF507AFFB
:108B5000254821461CF004FD1CF0F2FD79E71A4A75
:108B600022491B4840F2E51324F049FC204B072121
:108B7000A8FB030301FB08310DA3D3E90023FDF794
:108B8000BFFA1C4902461C4824F039FC404080F3DF
:108B900011884FF0030002DF184821461CF0E0FC6A
:108BA0001CF0CEFD6FF08B0054E700BFAFF30080E8
:108BB00000CA9A3B00000000D6BE898E555555006C
:108BC000A18C02008C0C0020807805004C69050007
:108BD000E0670500546905003D460400DD460400D9
:108BE000846B050010780500BD370400606805003F
:108BF0008D49FD1ACC780500487805001945040018
:108C000038B504461BF038FCA37DA27DC3F34103B5
:108C1000013303F00303032B08BF002363F3420275
:108C200014BF03F125002520A2751AF015FD636815
:108C30000BB123694BB90EF003FDC11C00201CF0E1
:108C400093FFBDE838401DF009B81CF0BBFF054696
:108C50000EF0F6FCC11C00201CF086FF1CF0FEFF8D
:108C60001CF0B0FF29460EF0EDFC0B4A034607212D
:108C7000A0FB020201FB032105A3D3E90023FDF7BA
:108C80003FFA23691B1A236138BD00BFAFF3008090
:108C900000CA9A3B000000008D49FD1A0000000048
:108CA0002DE9F0478AB004461CF07CFDC0B250B9F3
:108CB0001AF02AFDC44821461CF052FC0AB0BDE857
:108CC000F0471CF03DBD1CF08DFD05461CF0ACFED0
:108CD00007461CF0B3FE81461DF0EAF806461DF07B
:108CE000C9F882461CF062FEEDB280461CF042FEDE
:108CF0001AF00AFD002DDDD001200FF05FFB0546C4
:108D0000002800F04D8117F0FF07F6B240F0E38035
:108D1000002E40F0DA804FF0FF093A464B463146CC
:108D200020461BF0CFFD0028C4D02A7F61680023B5
:108D30008DF823305FFA88F702F00F03002900F066
:108D4000EC80616891F82010880700F1E680072B1D
:108D5000B0D0A17D090740F14381002B40F0C480D1
:108D60006B7F063B1F2BA5D804200FF027FB0028A4
:108D7000A0D01CF07BFF636A074643B9238C40F206
:108D8000712202FB03F3B0FBF3F203FB120723682B
:108D90001A698E4B0721A2FB030301FB023188A352
:108DA000D3E90023FDF7ACF96FF44A7C00EB0C0328
:108DB000BB42FFF47FAF1CF0CFFD4846636819F05B
:108DC00019FEE37D9907804640F1E581002800F017
:108DD000E281824601271CF013FDCDE9027A09AB3E
:108DE000049305F11E0301932B7FC3F38013014607
:108DF000074600930022012320461BF07DFD3846E4
:108E00001CF07CFC1CF0C4FC002840F0CA817048B7
:108E100021461CF0A5FB626892F8203043F0010364
:108E200082F82030A37D43F08003A3750FF0E8FAA9
:108E3000172202714FF6FF72C28095F81CC082465D
:108E40003B46CCF3401C00F11C0207F1200E1D68CC
:108E500058689968DF68D7601033734515605060B3
:108E6000916002F11002F2D11B6813609AF81C3075
:108E7000CAF808406CF345138AF81C301CF0A2FEB7
:108E8000002ECAF81000099BCAF8143008BF4FF032
:108E9000FF098AF81990E37D13F0020303D0B8F1BB
:108EA000000318BF01239AF81A2063F300028AF81E
:108EB0001A200FF0A5FACAF80C00DAF800005146A3
:108EC0000AB0BDE8F0470FF0C9BA5FFA8AF019F0AE
:108ED0001FFE814621E7A07D5FFA89F1C0F3C00043
:108EE00019F0ACFD814618E7012B40F089806A7FBC
:108EF0000C2A7FF4DFAE2A7FCDF8009019460023BC
:108F00000193D20905F1240320461BF02FFC002811
:108F10007FF42AAF2B7F03F00F03002B70D16B7F00
:108F2000052B7FF6C7AE252B3FF6C4AEA27D02F01F
:108F30002102202A09D16268002A00F0C180052B95
:108F40007FF6B8AE252B3FF6B5AE63682BB12B7F0D
:108F500003F00F03072B7FF4ADAE03209DF82380B1
:108F60000FF02CFA054600283FF4A4AE0FF048FAA3
:108F70004FF6FF73EB8005232B71002F3CD17F2030
:108F8000AB7E2876002E08BF4FF0FF0968F341033F
:108F9000286885F81990AB7629460FF05FFA89E6C4
:108FA0000C4A0D490D4840F2C72324F028FA4040EE
:108FB00080F311884FF0030002DFA4E6AFF30080D6
:108FC00000CA9A3B00000000314504008D49FD1A9B
:108FD000214704008078050010780500E06705004F
:108FE000B9F1FF0F8DF82490C2F380184BD0227E88
:108FF00091453FF4B2AE90E71CF0C8FCC0B2BFE7A9
:10900000062B8CD04521D94011F0010139D1012B1B
:1090100010D16B7F0C2B7FF44DAE2A7FCDF80090E2
:109020000DF123030193D20905F1240320461BF01F
:109030009DFB08BB2B7F03F00F03042B7FF43AAE9C
:109040006B7F063B1F2B3FF635AEA37DDB077FF51D
:1090500031AE1CF0D5FB2B7F0278C3F38013B3EB4A
:10906000D21F7FF427AE0830062205F11E012BF037
:10907000D5FE00287FF41EAE6B7F002B7FF465AF1A
:1090800018E66B7F5BE705F11E0A09AA51464046C8
:1090900019F0F4FD00283FF43DAFE37D03F0010338
:1090A00043457FF437AF5146062204F108002BF008
:1090B000B5FE00287FF42EAF2B7F03F00F034CE6A4
:1090C000962007921CF0D0FC079A10461CF09CFBDF
:1090D00003200FF073F9804600283FF4EBAD0FF04A
:1090E0008FF94FF6FF73A8F80630052388F804308F
:1090F000002F64D17F23002E88F8183014BF4B4610
:10910000FF2388F8193098F81A30D8F800006FF368
:10911000410388F81A3041460FF0A0F91CF070FBAB
:1091200006460322337862F3030333702B7F3278D1
:10913000C3F3801363F3C7120C2332704846737075
:1091400019F058FCE27D92073DD500283BD03178DC
:10915000324641F0400102F8021B0168C6F80210D5
:1091600083889380D5F81E30B3606B8CB381304612
:109170001CF0C4FA1CF00CFB002835D11CF06EFD6D
:10918000A37D204843F001032146A3750AB0BDE842
:10919000F0471CF0E5B9A77D04F1190AC7F3801761
:1091A00019E6194A19491A4840F2A44324F027F94C
:1091B000404080F311884FF0030002DF27E61CF0E7
:1091C000E5FBC3B297E7A37D3278C3F3801363F363
:1091D0008612334603F8022BD4F81920C6F8022071
:1091E000B4F81D209A80BDE7074A084908484FF4A3
:1091F000A56324F004F9404080F311884FF0030088
:1092000002DFBBE7454504008078050018780500BB
:10921000E0670500000000002DE9F041C468A28964
:109220004FF6FF739A4282B000F0C78005461BF0EC
:1092300067FC2B89628AE08A1A4492B21044637FE9
:10924000A28280B2411CE1825E064FF00001618281
:1092500004F1180100F18C8003F03F000B46A17F60
:10926000009004F11F0018F00DFC0646D4E90B2312
:109270001344D4E90D0200210244E1626163A16A52
:10928000A26394F872208B4228BF0B4612F00402AE
:10929000236377D01CF0A6F900201CF0C9F9201D2B
:1092A0001CF0E4F92389A17A40F25B6043EA0141B2
:1092B0001CF08CFA30461AF0CFF9214658481CF0C1
:1092C0004FF996201CF0D0FB94F85A2094F85B00DC
:1092D000C2F3C003002102F0070200F007001CF0F7
:1092E000DBFA20461BF06EFC27682E6838461AF021
:1092F00093F906446A6806F1090100201CF0C0FBDE
:1093000080461CF07FFC00201CF096FC236B94F838
:109310005B0003F13002A36B00F00700012103EBB7
:1093200042051CF0F9F94544054494F85B0000F04F
:109330000700022824D004280CBF4FF4BC73282354
:1093400001211D441CF0EAF928441CF04DFCA189C0
:1093500005313246C9B238461AF06CF9054698BB59
:1093600020461AF0F3F8D0B9002002B0BDE8F08131
:109370000A4603F03F03E18B18F0D0FB064675E781
:109380001823DDE7D4E917010CF0A0FC002881D1F7
:1093900094F8723043F0040384F872307AE7214A7B
:1093A0002149224840F2551324F029F8404080F327
:1093B00011884FF0030002DFD6E71D4821461CF05C
:1093C000CFF81CF0BDF9CFE7164A1A49174840F20A
:1093D0004B1324F014F8184B0721A5FB030301FBE2
:1093E00005310DA3D3E90023FCF78AFE1349024699
:1093F000134824F004F8404080F311884FF0030034
:1094000002DF104821461CF0ABF81CF099F96FF010
:109410008B00AAE7AFF3008000CA9A3B000000006F
:109420001D4E04004C7905004C690500E0670500FD
:10943000BD370400606805008D49FD1AA07905005C
:109440004878050099370400F0B5C468A2894FF642
:10945000FF739A4285B000F08B8005461BF050FBED
:109460002B89628AE08A1A4492B21044637FA282F6
:1094700080B2411CE1825E064FF00001618204F17E
:1094800018015FD403F03F000B46A17F009004F168
:109490001F0018F0F7FA0646204603A91BF060FCEF
:1094A000039B94F872101A7861F3C3021A70039A3E
:1094B00094F872301178C3F3400363F382011170A2
:1094C0001CF090F800201CF0B3F8201D1CF0CEF822
:1094D0002389A17A40F25B6043EA01411CF076F9EE
:1094E00030461AF0B9F8039920461BF00DFC2146CE
:1094F00037481CF035F896201CF0B6FA94F85B005B
:1095000000F007001CF080F927682E6838461AF032
:1095100083F806446A6806F1090101201CF0B0FADC
:109520001CF09CFBA18905313246C9B238461AF0BD
:1095300081F8054618BB20461AF008F850B90020FB
:1095400005B0F0BD0A4603F03F03E18B18F0E6FAE0
:109550000646A1E71F4A2049204840F2031323F0A2
:109560004EFF404080F311884FF0030002DFE6E732
:109570001B4821461BF0F4FF1CF0E2F8DFE7154A18
:1095800018491648F92323F03AFF174B0721A5FB8A
:10959000030301FB05310CA3D3E90023FCF7B0FD65
:1095A00012490246124823F02AFF404080F31188F6
:1095B0004FF0030002DF0F4821461BF0D1FF1CF0E3
:1095C000BFF86FF08B00BBE700CA9A3B00000000B9
:1095D000514C0400AC7905004C690500E0670500BA
:1095E000BD370400606805008D49FD1AFC7905004F
:1095F00048780500993704002DE9F0472DED028BDE
:109600009FED498B4A4E84B004464FF02003EFF3A0
:10961000118783F31288BFF36F8FD4F8C8508DB9C8
:10962000022104F1E0002AF03AFE002843D1002391
:109630008DED008B029304F1D00239463D4822F0B3
:109640000DF8E2E7D4F8CC202B68C4F8C830954276
:1096500008BFC4F8CC30D4F8E03043F00203C4F8BB
:10966000E030EB6823F0040343F00103EB606B6828
:1096700087F31188BFF36F8F284698474FF0200378
:10968000EFF3118983F31288BFF36F8FEB689907AB
:1096900023F0010219D4EA60D4F8E03023F0020389
:1096A000C4F8E03089F31188BFF36F8FDB05ACD4C9
:1096B00021F0B4FEA9E704F1D805002201212846D3
:1096C0002AF0F3FF0028F8D1B1E7306823F0030354
:1096D000EB600028E0D00027D0F80080BA460028D0
:1096E000DAD04268954201460BD1016897B9726899
:1096F0003160824200D1716040F808AB21F0AAFAD3
:109700003946B8F1000F0BD0D8F8002040460F467C
:109710009046E4E739607268824208BF7760EBE701
:109720004246F3E7AFF30080FFFFFFFFFFFFFFFFBD
:1097300060700020DA720020014821F08DBB00BF6C
:10974000B802002007B52AF0EDFF4FF47A72A0FBB3
:10975000020302FB0131C00B074A40EA414010609E
:1097600000234FF400420548CDE9002322F054F9CC
:10977000002003B05DF804FBC0360020780F002005
:10978000014B187800F09EBB80710020044B1A78C2
:10979000824202D01870FFF7F3BF0020704700BF6D
:1097A0008071002008B52AF0BDFF4FF47A72A0FB4B
:1097B000020302FB0131084AC30B126843EA41432A
:1097C0009B1A47F23052934204DDBDE80840012065
:1097D000FFF7DCBF08BD00BFC036002008B52AF087
:1097E000A1FF4FF47A72A0FB020302FB0131C00B10
:1097F000044A40EA41401060BDE808400020FFF7FD
:10980000C5BF00BFC0360020014B1878704700BFAD
:1098100080710020F8B5044610B900252846F8BD2F
:109820000378002BF9D00F4E0F4FBE420FD30D4ED1
:10983000BE42F2D230682AF085FB30B1356821464D
:109840002868FCF7C7FD0028E8D00436F0E7306848
:109850002AF078FB18B135682B68A342DED00436B5
:10986000E3E700BF54A0050074A0050070B5194CD3
:10987000194D8CB00022002303A9204621F0A6F840
:1098800008B10CB070BD2B68059E5868DDE9031265
:1098900022F029FE0028EDDBFF238DF81830B6FA00
:1098A00086F35B0907908DF820302AF03BFF4FF4D8
:1098B0007A72A0FB020302FB0131C00B40EA414077
:1098C000C90B8DE8030006ABCDE90A010FCB00F010
:1098D00013FBCFE7B01000209C3700201FB50A4CC7
:1098E0002468A46884420DD183F00103CDE90112FC
:1098F000039306480022002301A921F011F804482F
:1099000021F0AAFA04B010BD9C370020B01000204E
:109910008C3700201FB50023CDE90233044B8DF8AE
:109920000C0001A8019322F001FE05B05DF804FBD4
:109930004C5905000268034B9A420CBF08300020C6
:10994000704700BF4C590500014B0360322070473F
:10995000C4360020064B074A1B68934206D0064ACD
:1099600093420CBF01206FF0120070470020704737
:109970009C3700203859050024590500F8B540EA05
:109980000104012C74D8884209D10021914202D1EE
:1099900000252846F8BD43F821100131F6E7384C80
:1099A00054F8200054F82110364C0D69A04207D01D
:1099B000A142354C29D1A042344C2CD0002606E0DF
:1099C00081423DD0304881423DD0304E0024954206
:1099D0004ED818464FF0FF312BF069F800220346AD
:1099E0009542D6DD002E41D0002C3BD020460021F0
:1099F00050F8047FBA422ED106EB8101496843F842
:109A000022100132AA42F1DBC3E7A04233D0A142C7
:109A10001FD00024D2E704F1CC062046B44604F15E
:109A2000C80E50F8041F5CF8047F01310137B942B9
:109A300038BF39468D4238BF0D467045F1D1C6E773
:109A4000124C2646E9E7124CA4F1CC06E5E7104C8F
:109A5000F7E70F4CB2E701313229C9D10132AA42EE
:109A6000C2DB96E701329542FCDC92E70132B7E7B0
:109A70006FF015058DE78142E9D0054E0024A6E779
:109A80008457050038590500245905008C570500F6
:109A90005858050038B5044600282DD0184D2B68BD
:109AA000834225D02BB1986818B183685B6803B1F5
:109AB0009847144B9C421DD0134B9C420CBF012174
:109AC0006FF01201114B322201F0ED010020FFF77F
:109AD00055FF00280DDBA0682C6048B183680C4955
:109AE0001B6898472B68986883689B6803B1984700
:109AF000002038BD0021E5E76FF01200F9E700BF54
:109B00009C3700203859050024590500C436002030
:109B1000DD980200012838B505460BD8074B53F8ED
:109B20002000FFF7B7FF041E02DB2846FFF7F2FE16
:109B3000204638BD6FF01504FAE700BF84570500D2
:109B4000F7B50C4615460D4901AA1E4623F0B5FF90
:109B500068B1019B6BB9012C0DD1094F22463946E2
:109B60003046A847002802DD3878FFF7D3FF03B05E
:109B7000F0BD0020FBE76FF01500F8E760820500FC
:109B80001C0F00200148FFF785BF00BF38590500B2
:109B900008B5074907482AF0F5FB074A002342F8B1
:109BA000043B0133322BFAD1BDE80840FFF7EABF8E
:109BB0006D9802008C370020C436002030B51C4C54
:109BC00004EB00148FB0606883683A21DB68984723
:109BD00058BB60686189836804AD1B692A46984751
:109BE00018BB95E803000123069307AB83E8030045
:109BF0006389ADF824302AF095FD4FF47A75A0FB07
:109C0000053205FB0121DB0B43EA4143C90BCDE9DA
:109C10000A31237B8DF830300EAB13E90F008DE84D
:109C20000F0006AB0FCB00F08DF90FB030BD00BFB9
:109C3000D802002010B5134CBFF35B8F54E8002FFF
:109C400022F0010144E800100028F7D1BFF35B8F38
:109C5000D20702D50020FFF7B1FFBFF35B8F54E8B6
:109C6000003F23F0020244E800210029F7D1BFF3AE
:109C70005B8F9B0704D5BDE810400120FFF79EBF16
:109C800010BD00BFA0370020064901EB001250684C
:109C900030B183689B68114608310BB1024A1847FE
:109CA000704700BFD8020020AD9C020010B5104CD8
:109CB0000C1B102C1BD824112AF004FA90B1BFF30E
:109CC0005B8F01230B4AA34052E8000F184342E880
:109CD00000010029F8D1BFF35B8F0748BDE81040B1
:109CE00021F0BAB82046BDE81040FFF767BF10BDAD
:109CF000E0020020A0370020C802002002289ABFFE
:109D0000024B03EB40000020704700BF200E0020F4
:109D1000F8B50F4D0F4E761B07460C4605EBC105F7
:109D2000C6F3C706A64201DC00200CE02A683B68A7
:109D30009A4209D13C716B6838461B68984718B144
:109D4000431E012BF0D9F8BD01340835EAE700BF06
:109D5000488C0500908C050000B58BB0064B074A77
:109D60002821684621F030FF05490122684603F0AA
:109D700063FC0BB05DF804FBB2820500BC820500F9
:109D8000817100202DE9F8434768044600254FF013
:109D900001087B68AB420DD8214922482AF036FBE6
:109DA000A3681B680BB120469847398939BB00204E
:109DB000BDE8F8833A6802EBC50352F8350019791B
:109DC000DB88D0F810C0D0F80890DCF80060DA0723
:109DD00054BF43F4B01383F4D01323F4801208FA71
:109DE00001FEDB074CBF46EA0E0626EA0E06CCF85B
:109DF0000060D9F80030984770B90135C9E740F2E2
:109E0000E7304FF47A72002300EBC1300021FCF7F9
:109E100077F921F085FBCAE76FF00400C8E700BFBF
:109E2000599D0200C813002008B5074B5A784AB95B
:109E300001221A7005480022002321F075F8044819
:109E400022F08AFB002008BD81710020C813002089
:109E50008051050008B54FF4F0120023024821F0AC
:109E600097F800EAE07008BDC8130020F7B50C466B
:109E70001646114901AA1F4623F01FFEB0B1019BEF
:109E8000A3B9012C15D10D4D224629463846B047BD
:109E9000002806DB2B780A486C7023B122F05CFBAB
:109EA000002003B0F0BD22F073FBF9E76FF0010072
:109EB000F7E76FF01500F4E7B2820500817100202A
:109EC000805105001FB50023CDE90233044B8DF806
:109ED0000C0001A8019322F029FB05B05DF804FBFA
:109EE000705905000268034B9A420CBF08300020ED
:109EF000704700BF7059050084B030B589B00CAC14
:109F000084E80F00002301930CAD084B00930FCDA4
:109F100002AC0FC495E8030084E80300684622F011
:109F200005FB09B0BDE8304004B070477459050026
:109F30000268034B9A420CBF08300020704700BFF4
:109F40007459050084B030B58BB00EAC84E80F00B6
:109F5000002301930EAD084B00930FCD02AC0FC44C
:109F600095E80F0084E80F00684622F0DFFA0BB096
:109F7000BDE8304004B07047785905000268034BD3
:109F80009A420CBF08300020704700BF7859050086
:109F90001FB50023CDE90233044B8DF80C0001A856
:109FA000019322F0C3FA05B05DF804FB7C5905006B
:109FB00082B038B504A981E80C000546114820F0AC
:109FC0006BFA0446A0B16B68012B0CD0022B05D0B4
:109FD000A3B9BDE8384002B022F009BB22F00EFB65
:109FE00000282046F5DCBDE8384002B022F0F8BA7F
:109FF0006FF00400BDE8384002B070476FF0850094
:10A00000F8E700BFB282050082B010B502A981E86E
:10A010000C0004460B4820F03FFA78B16368022B2D
:10A0200004D00020BDE8104002B0704722F0E6FAEC
:10A030000028CCBF002001206060F2E76FF0040030
:10A04000F0E700BFB28205000D4A52F8203001331C
:10A0500042F820300B4A0123117883400B430A4910
:10A060000978DBB2137023EA01030849084A09782A
:10A0700050780B43181A537018BF0120704700BF67
:10A08000A437002085710020837100208471002096
:10A090002A0F002010B5114A52F82030002B19DD8C
:10A0A000013B42F820300E4A2BB913780121814040
:10A0B00023EA010313700B480B4B047810780B4A0A
:10A0C0005978127820EA040010435870401A18BFDB
:10A0D000012010BD6FF01500FBE700BFA437002082
:10A0E00085710020837100202A0F002084710020D8
:10A0F000044A012312788340D8B213401B1A5842F5
:10A10000584170478571002010B5084B084A1870F7
:10A11000084B51781C78084B1B7823EA040318433A
:10A120005070401A18BF012010BD00BF847100207C
:10A130002A0F00208371002085710020074B002228
:10A140001A70074B074A1978074B50781B7823EA97
:10A150000103181A537018BF012070478471002042
:10A16000837100202A0F002085710020A0F1E003F8
:10A17000072B03D82030C0B2FFF766BF064B06227C
:10A1800013F8011F19B1013AFAD100207047187075
:10A190000028F8D0F9E700BF2C0F0020A0F1E00361
:10A1A000072B10B405D820305DF8044BC0B2FFF780
:10A1B00071BF0023064A194612F8014F0133A0422D
:10A1C00008BF1170062BF7D100205DF8044B7047D3
:10A1D0002C0F0020A0F1E003072B03D82030C0B2E1
:10A1E000FFF786BF064A002312F8011F884204D0F9
:10A1F0000133062BF8D1002070470120704700BFC3
:10A200002C0F0020024B00221A605A60704700BFDA
:10A210002B0F0020B0F5805F10B510D20949002344
:10A2200001EB4302B2F8014024B10133062BF7D110
:10A23000002010BDA2F801000028F6D0F8E76FF06A
:10A240008500F6E71D0F002030B50023074C1946A6
:10A2500004EB43020133B2F80150854204BF517050
:10A260009170062BF4D1002030BD00BF1D0F0020DF
:10A27000024B00221A605A609A6070471E0F00203D
:10A28000074A002302EB4301B1F80110814204D0D8
:10A290000133062BF6D1002070470120704700BF24
:10A2A0001D0F0020004870472A0F0020004870470B
:10A2B0001D0F002082B02DE9F0410E9D006806A917
:10A2C00081E80C00164622F036F8079B29680469DD
:10A2D0006D68323B5B00E9B19F1904EBC70C54F881
:10A2E0003720DCF80400DFF8408011440C9A284441
:10A2F00090FBF8FE7144158808FB1E004FF4B47201
:10A30000B2FBF5F291FBF2F502FB151144F83710A0
:10A31000CCF8040033440833002044F82350BDE84F
:10A32000F04102B0704700BF40420F0030B593B01B
:10A33000182200210CA82AF0BAFB254D06AC0022F9
:10A340000CA90023284620F041FB014600283DD1FE
:10A35000182220462AF0ABFB0C9B07932AF0E2F967
:10A360004FF47A72A0FB020302FB01319DF83430F6
:10A370008DF82830C00B9DF8443040EA4140C90BAD
:10A3800013F00102CDE9080118BF0122049208ABC5
:10A390000FCB8DE80F000EA894E80C0022F021F8F6
:10A3A000119B012BCBD9C3F35E044FF4004540F25F
:10A3B000E73000214FF47A720023E5FB0401FBF73C
:10A3C0009FFE02460B46034820F0AEFD13B030BDA1
:10A3D000E01000200000002030B58BB001AC84E814
:10A3E0000E0042680492027C8DF8142094E8070065
:10A3F00006AD85E80B000F9A9DF8383043EA42031A
:10A40000099309480022002304A920F089FA0028B2
:10A4100004DB06482AF006F810B100200BB030BD6E
:10A420000248FFF783FFF8E7E0100020000000205B
:10A4300070B500250646056000F004FC044678B1BE
:10A4400001F07EFD30B900F0CFFC01237060337065
:10A45000304670BD064B1B78012BF4D02846F5E73B
:10A4600001F06EFD0028EED023462046EEE700BF47
:10A470008671002008B5094B1B7823B1012B06D04B
:10A480006FF0850008BDBDE8084022F009BCFFF769
:10A4900009FFBDE80840013000F0E6BDF4370020B8
:10A4A00008B5094B1B7823B1012B06D06FF085004E
:10A4B00008BDBDE8084022F0FBBBFFF7F7FEBDE892
:10A4C0000840013000F0F6BDF437002037B50849E8
:10A4D0000848094D6C4629F099FF2046FFF7A8FF70
:10A4E00094E8030085E80300002003B030BD00BFFE
:10A4F000FDA40200F8130020F437002002490348AD
:10A50000012203F099B800BF867100208683050000
:10A5100082B00DF1080C0CE9030019469DF80030DB
:10A5200010461BB1012B05D0054A00E0054A02B0D8
:10A5300021F04ABB019B044A02B021F045BB00BF99
:10A54000A58305009A8305009E83050030B589B078
:10A5500001AD0F4C2846FFF76BFF94E80C0095E81F
:10A56000030022F05AF980B922F07EF995E8030041
:10A570000A2305AA84E80300FFF7CAFF94E8030052
:10A5800003AB83E8030000F023F809B030BD00BF3F
:10A59000F437002070B50C4615460B4900221E46C4
:10A5A00023F08BFA08B9002070BD012C08D10749AF
:10A5B00022463046A8470028F6DDFFF7C7FFF2E73E
:10A5C0006FF01500F0E700BF908305008671002052
:10A5D0007FB56B4683E8030093E80300002206ABD7
:10A5E00003E90300039202A8034A029221F09EFFAE
:10A5F00007B05DF804FB00BF1C5A050001281FB519
:10A600002ED830BB11B9002004B010BD164B1A680B
:10A61000012383401343144C9A422360F3D08DF8F6
:10A6200000008DF801102AF07DF84FF47A72A0FB3B
:10A63000020302FB0131C00B40EA4140C90BCDE9E6
:10A64000020104AB13E90F0004B0BDE8104000F0B4
:10A6500013B9054B1A680029DAD122F00203DAE7B0
:10A660006FF01500D0E700BFC4380020014B196817
:10A6700022F055B9C4380020312937B504460D46BB
:10A6800002D9002003B030BD0128FAD801A8FFF795
:10A690005BF90028F5DB8542F3DA019B53F825309E
:10A6A000312BEED84FF4167202FB04F00C2202FBA1
:10A6B0000300014B1844E5E7285A05002DE9F74F40
:10A6C000DDE90CABDFF84C9006460C4615461AB196
:10A6D0000F4B1B6849F8213001275FFA87F859F8BA
:10A6E0002410404622F01BF938B927B96FF08500D5
:10A6F00003B0BDE8F08F0027EFE7CDE900AB2B46B4
:10A7000022464146304622F01AF90028F0DDECE7F7
:10A71000C4380020FC3700202DE9F04F2DED028BCE
:10A720009FB0544ECDE90A129DED2A8B00EB4003F9
:10A73000804606EB830601254FF0000A00F132093E
:10A740000DF1680BB06921F0F6FD002800F089805A
:10A7500000234046CDE91033FFF7D0FACDE90C597C
:10A760008DED0E8B0DF1300C0446BCE80F0012AFDE
:10A770000FC79CE8030087E80300CDE912598DED6F
:10A78000148B0DF1480EBEE80F000DF1600CACE823
:10A790000F0097E803008CE80300B06921F0CBFDBF
:10A7A00000285ED083681F69002F5AD006F1180375
:10A7B00009930A9B06930B9BCDE904439BE80F008A
:10A7C0008DE80F00DDE918230998B847002848DB19
:10A7D000BAF1000F31D1E8B2FFF748FF80F001076E
:10A7E000FFB2CDE90C598DED0E8B0DF1300CBCE8AC
:10A7F0000F0012AC0FC49CE80300FFB284E8030012
:10A80000CDE912598DED148B0DF1480EBEE80F0005
:10A810000DF1600CACE80F0094E803008CE8030035
:10A82000B06921F088FD50B96FF015000546284643
:10A830001FB0BDEC028BBDE8F08F0127D1E7836824
:10A840005C6914B96FF08500F0E704979BE80F008E
:10A850008DE80F00DDE918230998A047002805D0EE
:10A86000E4DB183E002DE2D000256BE74FF0010A33
:10A87000F7E700BF1803002010B58AB06C4684E8E3
:10A880000F0000230593064B049394E80F000AACD5
:10A8900004E90F0004A821F049FE0AB010BD00BF72
:10A8A000D85E050084B030B589B00CAC84E80F00E8
:10A8B000002301930CAD084B00930FCD02AC0FC4E5
:10A8C00095E8030084E80300684621F02FFE09B0F4
:10A8D000BDE8304004B07047E05E05000268034BFD
:10A8E0009A420CBF08300020704700BFE05E0500B0
:10A8F0007FB56B4683E8030093E80300002206ABB4
:10A9000003E90300039202A8034A029221F00EFE1B
:10A9100007B05DF804FB00BFE45E0500074B1A7842
:10A92000074B82B0162102FB013301938DF8002002
:10A9300002AB13E9030002B0FFF7DABF8E7100200B
:10A940008F71002002490348012202F075BE00BF4A
:10A950008E7100206084050008B5002005F096F88F
:10A96000002802DA10F1780F07D1044802F0F4FE53
:10A970000348044929F04AFD002008BD9403002043
:10A980002814002045A9020070B503788AB0044657
:10A990000E4607AD032B20D8DFE803F002191B1D7C
:10A9A00011492846FBF720FD059563780493A378A9
:10A9B0000393E37802932379019363790093A37956
:10A9C0000A4A1E21304621F0FFF80AB070BD08493E
:10A9D000E7E70849E5E70849E3E7084A0A21284686
:10A9E00021F0F2F8E0E700BF738405009C840500C5
:10A9F0007A840500818405008B8405009584050018
:10AA000010B592B0044625F072FC01A9FFF7BCFF17
:10AA100009A9204606F0F2FE9DF82530012B13D13E
:10AA20000A4820F019FA204625F061FC084B1978F5
:10AA30000F22162313FB01230649194421F0FBFFC3
:10AA400010B9054820F008FA12B010BDAC03002080
:10AA50008E7100208F710020BC0300202DE9F04191
:10AA60008AB00D46164628496A4604461F4623F01A
:10AA700024F8F8B10098E8B10A2201A921F046F9BA
:10AA8000019B1B7803BB162D1ED1C4B2042C1BD80E
:10AA9000DFF888806C432A4608EB04013846B0474B
:10AAA000002813DD04F10F0002A94044FFF76CFFFA
:10AAB00000200BE015496A46204622F0FEFF78B1DF
:10AAC000009B6BB9012D04D06FF015000AB0BDE8F2
:10AAD000F0810F492A463846B04700EAE070F5E7B2
:10AAE0000C496A46204622F0E8FF0028E0D0009892
:10AAF0000028DDD0072DE7D12AF08CF90028D7D126
:10AB000005492A46E7E700BFBF84050064840500C5
:10AB10008E710020C8840500877100208F7100208D
:10AB2000042808B50CD80F22162313FB0023054870
:10AB30000549184421F07FFFB0FA80F0400908BDB4
:10AB40000020FCE78F710020ED870500014B18788D
:10AB5000FFF7E6BF8E7100202DE9F0410C4690B062
:10AB600005464FF0160808A9204615FB08F7FFF721
:10AB70000BFF0E4E216807F10F029319B150A28806
:10AB80009A80A2799A710021094B0095112203A89D
:10AB90002AF026F94246F11903A802F04DFD0548B6
:10ABA00020F05AF910B0BDE8F08100BF8F7100208D
:10ABB000DD840500BC03002038B50F23162414FBE8
:10ABC0000034094B09491C440546204621F033FF57
:10ABD00048B12146002004F03DFE28460349BDE867
:10ABE0003840FFF7B9BF38BD8F710020ED870500F1
:10ABF00010B504288AB002D900200AB010BD0F2376
:10AC0000162414FB00340D4B0D491C44204621F042
:10AC100012FF0028F0D02146002006F06FFD044608
:10AC20000028E9D001A906F0E9FD204625F041FA07
:10AC30009DF82400831E58425841DEE78F710020A2
:10AC4000ED870500014B1878FFF7D2BF8E71002009
:10AC5000F0B58DB0FFF77AFF98B9FFF7F3FF80F0FA
:10AC600001035B00DBB2214D2A7803EB0213112BA9
:10AC700009DC022B2DD0102B23D0002420460DB050
:10AC8000F0BD0223EFE7202B1BD0122BF5D105F0EE
:10AC9000EBFC00232B7004460028EFD1144F0FCF9C
:10ACA00002AE0FC63B68134933600322009423466B
:10ACB00002A805F0A7FC04460028DFD102232B7070
:10ACC000DBE705F0D1FC00232B7004460028D4D02C
:10ACD000D4E7074E0FCE07AC0FC4336823600023C0
:10ACE00004490093032207A8E3E700BFFD71002099
:10ACF00070540500CC03002030B593B0054625F014
:10AD0000F6FA01A90446FFF73FFE09A9284606F016
:10AD100075FD9DF82530012B05D1FFF717FF214662
:10AD200018B904F097FD13B030BD034B1878FFF746
:10AD300013FFFFF78DFFF6E78E71002030B593B05B
:10AD40000D4609A9044606F059FD9DF82530012B52
:10AD50000BD1204625F0CBFA01A9FFF715FE0E4BCB
:10AD600000221A701DB1FFF773FF13B030BDFFF75B
:10AD70006FFF204625F0BBFA084B19780F221623E7
:10AD800013FB01230649194421F055FE0028ECD19C
:10AD9000044820F061F8E8E7FD7100208E71002082
:10ADA0008F710020BC03002008B5064806F080FC27
:10ADB000054806F07BFF054806F092FFFFF748FFC5
:10ADC000002008BD74030020580300204803002021
:10ADD00008B5044B1878FFF7EFFEBDE80840FFF711
:10ADE00037BF00BF8E710020014B1878704700BF3D
:10ADF0008E710020042808B510D80A4B1A788242B8
:10AE00000AD018704FF4F0120023074820F0C0F861
:10AE1000FFF71EFFFFF782FD002008BD6FF0210045
:10AE2000FBE700BF8E71002028140020054B187826
:10AE300005230130B0FBF3F303EB8303C01AC0B268
:10AE4000FFF7D8BF8E710020054B1878052304301A
:10AE5000B0FBF3F303EB8303C01AC0B2FFF7CABF22
:10AE60008E710020042838B51DD80F23162414FB3A
:10AE700000340E4B0E491C44204621F0DCFD18B96D
:10AE80006FF01204204638BD2146002006F036FC43
:10AE900005460028F4D0132125F02BFA0446284655
:10AEA00025F007F9EEE76FF02104EBE78F71002042
:10AEB000ED87050010B50A4B0A491A7816240F23AE
:10AEC00014FB0234084B1C44204621F0B4FD28B189
:10AED00021460020BDE8104006F010BC10BD00BFA8
:10AEE0008E710020ED8705008F71002070B5174D21
:10AEF00092B004460146284621F09DFDF8B10AA90A
:10AF00002846FFF741FD1249284621F094FD0646E8
:10AF1000C0B902A92046FFF737FD23682B60A3883C
:10AF2000AB80A379AB71202231460A4B00960AA868
:10AF300029F056FF072221460AA802F07DFB0020D7
:10AF400012B070BD6FF00B00FAE700BF87710020F0
:10AF5000ED870500ED8405001FB54D240294044CD7
:10AF60000194BDF81840009426F007FD04B010BD10
:10AF70002585050007B5064B0093064906480523BD
:10AF80004FF440721FF06EFF002003B05DF804FB29
:10AF9000005F0500E072002058140020F0B5164E46
:10AFA000164F89B000220023694630461FF00EFD7F
:10AFB000054608B109B0F0BDFFF77CFF0446002844
:10AFC000F8D01822294602A829F071FD08230DEBBC
:10AFD000030120460397CDF810D0ADF8143008F0E7
:10AFE000C7FD013003D10221204625F006F9204695
:10AFF00025F05FF8D6E700BF401100206C5F050028
:10B000002DE9F041164FDFF85C808AB001AE0022D6
:10B010000023314638461FF0D9FC054610B10AB06E
:10B02000BDE8F081FFF746FF04460028F7D018225C
:10B03000294604A829F03BFD0C2304A92046CDE9AC
:10B040000586ADF81C3008F093FD013003D10221D4
:10B05000204625F0D2F8204625F02BF8D7E700BF90
:10B0600010110020BC5F050037B5054640F6CD4203
:10B07000014600230C481FF053FC044678B110F140
:10B080000B0F09D100220023694607481FF09EFCE0
:10B090002846FFF7E9FF0446204603B030BD0349C8
:10B0A000034829F09CF9F7E740110020F403002041
:10B0B0005814002030B5054685B040F6CD42014613
:10B0C00000230D481FF02CFC044678B110F10B0F43
:10B0D00009D10022002301A907481FF077FC284668
:10B0E000FFF7E8FF0446204605B030BD0349044899
:10B0F00029F075F9F7E700BF10110020E4030020E4
:10B10000581400201FB50023CDE90233044B8DF8FD
:10B110000C0001A8019321F009FA05B05DF804FBC9
:10B120003860050008B500F07DFFBDE80840014922
:10B1300029F055B9C404002007B5084828F002FFDB
:10B1400048B14FF4F0120023CDE900230448002257
:10B15000002320F061FC03B05DF804FBBC51050046
:10B16000B00F002008B5FEF7BDFE10B96FF08500E6
:10B1700008BDFEF749FB38B10138C0B20128F5D847
:10B18000034829F016FB01E0FFF7D6FF0020EFE7A8
:10B19000B00F002037B5104CA5682D21EB68204674
:10B1A0009847B8B92D212B696A462046984788B937
:10B1B0000A4C00982378834204D0C0B22070FFF775
:10B1C000A1FF38B902F00AFA2378984202D0184653
:10B1D00002F00AFA03B030BDBC510500FF71002037
:10B1E00008B5054828F0AEFE18B1FFF7A5FF00200E
:10B1F00008BD6FF01200FBE7BC510500064A12784B
:10B20000022A00F1FF3315BFC0F101000023C0186E
:10B21000037008BF01207047C8380020014B186038
:10B22000002070476C39002007B56846FFF7E6FF3D
:10B2300088B1012814BF01230223084A1278002094
:10B2400062F30700064A127862F30F2063F3174097
:10B2500003B05DF804FB0346EFE700BF0072002077
:10B260000272002013B50C4B1C6894B1FFF7DCFF91
:10B270008DF80400C0F30723C0F307408DF80530B4
:10B280008DF8060001990548234602B0BDE810403C
:10B29000184702B010BD00BF6C39002074A0050033
:10B2A00013B50E4B01221A700D4B1C6894B1FFF7B9
:10B2B000BBFF8DF80400C0F30723C0F307408DF8EF
:10B2C00005308DF8060001990648234602B0BDE816
:10B2D00010401847204602B010BD00BF0072002089
:10B2E0006C39002074A0050013B5002408490948F2
:10B2F000009405234FF400721FF0B4FD064806F0D9
:10B30000D7F9064802F028FA204602B010BD00BF67
:10B31000E075002040150020FC040020D40400202B
:10B3200030B50E4B187887B098B10D4B187890B99E
:10B330000C4A52686AB90C4D01221A700FCD01AC4B
:10B340000FC42B680949236001A805F0EFFB00EA50
:10B35000E07007B030BD0020FBE700BF02720020A4
:10B3600001720020C838002084540500C9BA0200C8
:10B3700008B5FEF7DFFA10B102481FF06DFD00209E
:10B3800008BD00BF1C05002030B50E4C0E4D87B027
:10B390000022002302A920461FF018FB08B107B0C5
:10B3A00030BDDDF811009DF8153000908DF80430A7
:10B3B000DDF80920DDF80D309DF80810284600F072
:10B3C000B9FCE5E78010002074A0050070B5037893
:10B3D0008AB004460E4607AD032B20D8DFE803F001
:10B3E00002191B1D11492846FAF7FEFF05956378DF
:10B3F0000493A3780393E378029323790193637909
:10B400000093A3790A4A1E21304620F0DDFB0AB0E2
:10B4100070BD0849E7E70849E5E70849E3E7084A56
:10B420000A21284620F0D0FBE0E700BF7384050026
:10B430009C8405007A840500818405008B840500C6
:10B440009584050008B5FEF785FA0146044803789F
:10B45000022B04D1BDE80840C9B221F096BB08BD5B
:10B46000C838002008B50A4B187018B1BDE808406C
:10B47000FFF756BF074B187005F0D8FB064B1A783C
:10B48000022A03D15868132124F033FF002008BD9D
:10B490000272002001720020C83800202DE9F0411E
:10B4A000DFF8B8802C4D92B00022002309A9404655
:10B4B0001FF08CFA044670B99DF82400A42606FB00
:10B4C00000F3EA18EB5C022BEED19DF82570012FFA
:10B4D00004D0022F39D012B0BDE8F081B2F880302C
:10B4E000002BE1D0DDF83E308DF810309DF8423071
:10B4F0008DF811309DF84330CDF81B40003B18BF4C
:10B5000001238DF81230DDF83630CDF813300DF10F
:10B510002601DDF83A30CDF8173009220DF11B0075
:10B52000CDF81F408DF8234020F0EFFE9DF8240059
:10B530000097CDE9014406FB00501423B0F88010B9
:10B54000406804AA26F07FFDAEE79DF8261000FBB8
:10B55000065021F01AFBA7E7C83800207011002020
:10B5600084B030B591B014AC84E80F001348214684
:10B5700040F6CD4200231FF0D3F90446C8B110F1C4
:10B580000B0F10D10022002307A90C4818AD1FF0A3
:10B590001DFA0FCD6C460FC42B68238014AB0FCB64
:10B5A000FFF7DEFF0446204611B0BDE8304004B08E
:10B5B00070470349034828F012FFF4E77011002098
:10B5C000EC04002040150020034B5B68834214BF4D
:10B5D0006FF0150000207047C838002030B50546D0
:10B5E00089B00846114622B982810024204609B05C
:10B5F00030BD012BF9D90C2B28BF0C231A4601A80A
:10B6000029F047FA9DF80540012CEED10E220021C9
:10B6100004A829F04CFA2846FFF7D6FFDDF80630DB
:10B62000CDF81230DDF80A30CDF81630BDF80E3006
:10B63000ADF81A309DF804308DF810008DF81140E7
:10B640008DF81C300022002304A903481FF068F97C
:10B6500002481FF001FCC9E7801000203C050020D3
:10B6600008B5FFF7B1FF031EA3BF0348A42202FBE6
:10B670000300002008BD00BFC838002010B51446E4
:10B68000FFF7EEFF50B1B0F882303BB134B9012979
:10B6900004D9BDE8104002481FF0DEBB10BD00BF5A
:10B6A0001C050020F0B5134687B0064631B91822B4
:10B6B000184629F0FCF9002007B0F0BDFFF7D0FFD5
:10B6C00004460028F7D0114B876801AA03F1100E39
:10B6D000944618685968154603C5083373452A46C9
:10B6E000F7D11B782B706146384623F03EFD08B138
:10B6F0000120E1E7064BE3600323A060237604F119
:10B700000801304608F03EFBD5E700BF985405001D
:10B7100015B702002DE9F041074694B016460D46D4
:10B72000002900F0CD80C968002900F0CB80FFF728
:10B7300097FF0446002846D0337C032B34D1624B5C
:10B740000E686A4603F110089646186859689446D0
:10B75000ACE80300083343456246F6D11B788CF809
:10B7600000307146304623F000FD78BB04F16803D9
:10B770006363E38A2386284626F016F9534B236237
:10B780000122A085228704F13C03BFF35B8F53E8BD
:10B79000001F43E800200028F9D1BFF35B8F04F1BC
:10B7A0002001384608F000FDB4F880304BB1A38D7D
:10B7B0003BB1B4F8823023B1B4F85030003B18BF2D
:10B7C000012383F0010014B0BDE8F081404B05AACD
:10B7D00003F110089646186859689446ACE80300CF
:10B7E000083343456246F6D11B788CF80030714629
:10B7F000304623F0BAFC20BBA0602B8A02332382A0
:10B800000323237604F16803A365E38AA4F8543084
:10B81000284626F0C9F82F4B63640122A4F8500093
:10B82000A4F85C2004F16003BFF35B8F53E8001FB2
:10B8300043E800200028F9D1BFF35B8F04F14401F5
:10B84000AFE7254B0AAA03F1100E94461868596811
:10B85000174603C7083373453A46F7D11B783B7048
:10B860006146304623F081FC48B9A0602B8A023340
:10B870002382284626F098F8A4F8800094E7EB6825
:10B880001F68164B0FAA03F1100E944618685968EA
:10B89000164603C6083373453246F7D11B7833701A
:10B8A0006146384623F061FC00287FF47DAF2846CE
:10B8B00026F07AF8A4F8820009481FF0CDFA73E761
:10B8C000084680E708467EE7A9540500E5B802006F
:10B8D000BA540500DDB50200CB540500DC54050068
:10B8E0001C0500202DE9F04F85B006461446FFF7F1
:10B8F000B7FE00284DD024B98C81204605B0BDE8A4
:10B90000F08F631E00F183020F3413F8011F12F849
:10B91000015F6940117419781170A342F5D1DFF805
:10B920007890DFF878A000F1940400274FF0010828
:10B9300000252378EB40DB0723D514F8102C08FAF8
:10B9400005F31A424FF000014FF00E02684614BF93
:10B950004FF0010B4FF0000B29F0A9F83046FFF72C
:10B9600033FE7B198DF800008DF802308DF803B09E
:10B9700000220023694648461EF0D2FF50461FF0C1
:10B980006BFA0135082DD4D10837802F04F101045A
:10B99000CED10120B2E700BF801000203C0500207E
:10B9A0002DE9F043044685B0002838D11D4E337888
:10B9B000ABB3706810B124F07CFB746000241A4FA4
:10B9C000DFF86880DFF86890347000253B78EB4042
:10B9D000DB0710D50E220021684629F068F86319AC
:10B9E0008DF8023000220023694640461EF098FF81
:10B9F00048461FF031FA0135082DE7D10834802C74
:10BA000007F10107E1D108482022002129F04FF871
:10BA10000020B085C6F8800005B0BDE8F0836FF067
:10BA20001500F9E7C83800204C39002080100020AC
:10BA30003C05002070B5FFF759FA041E0ADBA42567
:10BA4000064E6543735D2BB9FFF7AAFF01237355BB
:10BA5000204670BD6FF00B04FAE700BFC838002025
:10BA600070B586B00646FFF7E5FF041E22DB134BD8
:10BA700000221A7005F0DAF800281BDB104BD3F80F
:10BA80006A00D3F86E106A4603C2743315460FCBB2
:10BA900085E80F000B4BA42202FB043329466A46BB
:10BAA000304605F00DFF002804DA2046FFF778FF46
:10BAB000FFF736FC002006B070BD00BF0172002009
:10BAC00084540500CC38002070B588B0154669460E
:10BAD00004461E46FFF77AFC35B906492246304631
